:020000040800F2
:1000000020100020710D0008990D00089D0D0008BA
:10001000A10D0008A50D0008A90D000800000000B2
:10002000000000000000000000000000AD0D00080E
:10003000B10D000800000000B50D00087F040008A5
:10004000BD0D0008C10D0008C50D0008C90D000850
:10005000CD0D0008D10D0008D50D0008D90D000800
:10006000DD0D0008E10D0008E50D0008E90D0008B0
:10007000ED0D0008F10D0008F50D0008F90D000860
:10008000FD0D0008010E0008050E0008090E00080D
:100090000D0E0008110E0008150E0008190E0008BC
:1000A0001D0E0008210E0008250E0008290E00086C
:1000B0002D0E0008310E0008350E0008390E00081C
:1000C0003D0E0008410E0008450E0008490E0008CC
:1000D0004D0E0008510E0008550E0008590E00087C
:1000E0005D0E0008610E0008650E0008690E00082C
:1000F0006D0E0008710E0008750E0008790E0008DC
:100100007D0E0008810E0008850E0008890E00088B
:1001100053040008910E0008950E0008990E00087F
:100120009D0E0008A10E0008A50E0008A90E0008EB
:10013000012110F01F029140DFF8582340B240091E
:1001400042F82010704740B2002809D50901DFF8B5
:10015000482340B210F00F00801800F8041C04E09F
:100160000901DFF8382340B28154704780B5411E41
:10017000B1F1807F01D3012011E0401EDFF8201390
:1001800008600F215FF0FF30FFF7DDFF0020DFF890
:10019000141308600720DFF810130860002002BD68
:1001A00010B584B000F079F800F0D3F800F0A5F8AD
:1001B0001021BE4800F0EDF9C82000F036F9022108
:1001C000BB4800F0E6F9C82000F02FF90821B74835
:1001D00000F0DFF9C82000F028F91021B34800F042
:1001E000D5F9C82000F021F90221B14800F0CEF97C
:1001F000C82000F01AF90821AC4800F0C7F9C8205F
:1002000000F013F91021A94800F0C3F90221A84811
:1002100000F0BFF90821A54800F0BBF9C82000F0A4
:1002200004F91021A14800F0B1F90221A04800F022
:10023000ADF908219D4800F0A9F9C82000F0F5F8B3
:1002400010219A4800F0A5F90221994800F0A1F97F
:100250000821964800F09DF900A896490B2200F06D
:100260009BF9002406E000A8E4B2215C924800F06B
:10027000CCF8641C00A8E4B2205C0028F3D100A8EC
:10028000E4B2205C002807D10A218B4800F0BDF8B9
:100290000D21894800F0B9F8FEE780B500F0CEF9ED
:1002A0005FF4803000F0FAF9312000F0E8FA00281D
:1002B000FAD0002000F03AFA002000F04BFA4FF498
:1002C000806000F03DFA4FF4804000F04EFA5FF499
:1002D000E0115FF4403000F00BFA012000F013FA57
:1002E000392000F0CCFA0028FAD0022000F00FFAF2
:1002F00000F017FA0828FBD101BD80B501211020BC
:1003000000F09DFA0121042000F099FA1820ADF8C0
:10031000000003208DF8020010208DF8030000A9D2
:10032000624800F0CFF80220ADF8000003208DF8FD
:10033000020010208DF8030000A95D4800F0C2F80B
:1003400018215A4800F022F90221594800F01EF9FC
:1003500001BD00B587B001215FF4002000F07FFAF5
:100360000121102000F06BFA4FF40060ADF800009E
:1003700004208DF8030000A94C4800F0A3F84FF4C6
:100380008060ADF8000003208DF8020018208DF881
:10039000030000A9454800F095F85FF4E1300290B1
:1003A0000020ADF80C000020ADF80E000020ADF8E4
:1003B00010000020ADF814000C20ADF8120002A9C6
:1003C0003D4800F09DFA4FF4C06000F09BFB3420E4
:1003D0008DF8040001208DF8050003208DF806003B
:1003E00001208DF8070001A800F091FB3420FFF7F1
:1003F0009FFE012240F225512F4800F0F1FA012121
:100400002D4800F0DFFA07B000BD38B504000D003C
:100410004021294800F015FB0028F9D0EDB2290051
:1004200089B2200000F005FB31BD10B5040023485F
:1004300000684FF47A71B0FBF1F0FFF797FE2048A7
:1004400004801F4800880028FBD10020164908605E
:1004500010BD80B540F22551174800F0FFFA002882
:100460000CD040F22551144800F02AFB124800F04D
:10047000E4FA010089B2104800F0DBFA01BD10482F
:100480000088002804D00E480088401E0C490880CF
:100490007047000000E100E018ED00E000E400E03B
:1004A00014E000E018E000E010E000E0001001407F
:1004B00000080140800D0008004C0040140000209E
:1004C00018000020F0B4002200260024002500239C
:1004D000002791F803C01CF00F0C624691F803C08E
:1004E0005FEACC6C01D58B781A430B781B0621D0C0
:1004F0000368002406E0CD78482D02D10125A540EF
:100500000561641C082C14D20125A5400E882E40DC
:10051000AE42F6D1A5000F2616FA05F7BB4312FA34
:1005200005F52B43CD78282DE5D10125A540456162
:10053000E7E703600B88FF2B26DD4368002420E0FB
:10054000012514F10806B5400E882E40AE4217D1A1
:10055000A5000F2616FA05F7BB4312FA05F52B4343
:10056000CD78282D04D1012514F10806B540456148
:10057000CD78482D04D1012514F10806B540056158
:10058000641C082CDCD34360F0BC704789B2016165
:10059000704789B24161704762B38B0708D0521E21
:1005A00011F8013B00F8013B00F024808B07F6D1E5
:1005B000830740F0208000BF103A07D330B4B1E881
:1005C0003810103AA0E83810F9D230BC530724BFD5
:1005D000B1E80810A0E8081044BF51F8043B40F807
:1005E000043BD20724BF31F8022B20F8022B44BF72
:1005F0000B7803707047083A07D3B1E80810083A3F
:1006000040F8043B40F804CBF7D25307E4E710B4BA
:1006100050F8041B81B102681218001D50F8043B09
:10062000DC0744BFA9F10104E31852F8044B43F876
:10063000044B091FF9D1EBE710BC7047DFF88402C7
:10064000006850F00100DFF87C120860DFF87802E3
:100650000068DFF878120840DFF86C120860DFF8F5
:1006600064020068DFF868120840DFF8581208607A
:10067000DFF85002006830F48020DFF8481208608C
:10068000DFF84402006830F4FE00DFF83C12086036
:100690005FF41F00DFF83C1208607047DFF8241297
:1006A000096831F48031DFF81C221160DFF8141280
:1006B000096831F48021DFF80C221160B0F5803F29
:1006C00003D0B0F5802F09D011E0DFF8F801006801
:1006D00050F48030DFF8EC11086008E0DFF8E40146
:1006E000006850F4A020DFF8DC110860FFE77047D5
:1006F0000022754B1B681A0032F47C120843024337
:10070000714802607047C0B27349086070470021A9
:100710006D4A126811008908890001436A48016026
:1007200070476948006810F00C0070470021664A65
:100730001268110031F0F001014363480160704715
:100740000021614A1268110031F4E06101435E4802
:100750000160704700215C4A1268110031F4605159
:1007600051EAC0015848016070470021564A12689A
:10077000110031F44041014353480160704730B4E7
:1007800000220021002300244F4D2D6815F00C0598
:100790002A00002A04D0042A05D0082A06D021E025
:1007A0004F49016020E04F4901601DE0464909685A
:1007B00011F47011444A126812F48033890C891CB8
:1007C000002B03D1484A514301600AE03E4A1268B7
:1007D000920303D5424A5143016002E0414A51432A
:1007E000016001E03E4901603749096811F0F002FB
:1007F00012093E49545C0168E14041603249096890
:1008000011F4E062120A3949545C4168E1408160A8
:100810002D49096811F46052D20A3449545C416888
:10082000E140C1602849096811F44042920B304907
:10083000545CC168B1FBF4F1016130BC7047C9B2CE
:10084000002905D02B49096808432A49086005E0BA
:100850002849096831EA0000264908607047C9B292
:10086000002905D02449096808432349086005E0A8
:100870002149096831EA00001F490860704710B437
:10088000002200230021C0B24409E4B22200012A60
:1008900002D10C490B6806E0022A02D10F490B680D
:1008A00001E016490B68C0B210F01F0233FA02F0E3
:1008B000C00701D5012100E000210800C0B210BC32
:1008C0007047000000100240041002400000FFF8D2
:1008D000FFFFF6FE08100240600042422010024076
:1008E00000127A000024F40000093D0000000020FE
:1008F00010000020181002401C100240241002407A
:10090000F0B585B004000D00002000210022002376
:100910000026AF89002F2600208A4CF6FF71084080
:10092000E98808432082A0894EF6F3110840A9887F
:100930002A8911436A8911430843A081A08A4FF68E
:10094000FF410840A9890843A08200A8FFF717FFCC
:100950001B48864201D1039900E00299A089000456
:1009600007D5192000FB01F029684900B0FBF1F21E
:1009700006E0192000FB01F029688900B0FBF1F2C4
:100980006420B2FBF0F000010109642303FB112392
:10099000A189090408D5D90032316422B1FBF2F1F2
:1009A00011F00701084307E0190132316422B1FB5D
:1009B000F2F111F00F010843208105B0F0BD0000F5
:1009C00000380140C9B2002904D0818951F4005196
:1009D000818104E081894DF6FF7211408181704769
:1009E000F0B4002300240025002689B240F66A17DF
:1009F000B94206000800C0B24309DBB289B211F067
:100A00001F04012010FA04F5012B01D10C3604E07B
:100A1000022B01D1103600E01436D2B2002A03D0E6
:100A200030682843306002E03068A8433060F0BC92
:100A30007047C905C90D818070478088C005C00D09
:100A40007047002289B2B1F5007F0088084201D0CA
:100A5000012200E000221000C0B2704770B40023F1
:100A600000240025002289B240F66A16B1420A002D
:100A7000D2B25509EDB289B211F01F04012212FA67
:100A800004F4012D02D18289144006E0022D02D126
:100A9000028A144001E0828A144089B20B0A9BB298
:100AA000012111FA03F300880340002C03D0002B2E
:100AB00001D0012200E000221000C0B270BC7047DB
:100AC00010B40022002389B240F66A14A14289B210
:100AD0000A0A012111FA02F39BB2D943018010BC2A
:100AE000704750F8041B61B150F8042BD30744BF82
:100AF000A9F101039A18002342F8043B091FFAD117
:100B0000EFE770471A4908431A490860704710B464
:100B1000002100220F23C478002C1DD0154909683C
:100B200011F4E061D1F5E061090AD1F10402CB4092
:100B30004178914082781A40114309010E4A0378A6
:100B400099540121027812F01F0291400B4A00785B
:100B5000401142F8201009E00121027812F01F0232
:100B60009140074A0078401142F8201010BC7047AD
:100B70000000FA050CED00E000E400E000E100E018
:100B800080E100E080B54F48006850F001004D4919
:100B900008604D4800684D4908404B490860494885
:100BA00000684B490840474908604648006830F4EF
:100BB0008020444908604448006830F4FE004249FF
:100BC00008605FF41F004349086000F005F85FF01B
:100BD00000604149086001BD80B500F001F801BD29
:100BE00082B000200190002000903648006850F448
:100BF0008030344908603348006810F400300090B9
:100C00000198401C01900098002803D10198B0F58C
:100C1000A06FF0D12B480068800302D5012000901E
:100C200001E0002000900098012847D12B4800687F
:100C300050F01000294908602848006880088000AA
:100C4000264908602548006850F0020023490860E2
:100C50001D4800681C4908601B4800681A49086064
:100C60001948006850F48060174908601648006809
:100C700030F47C10144908601348006850F4E81000
:100C8000114908600F48006850F080700D490860F5
:100C90000C4800688001FBD50B4800688008800084
:100CA000094908600848006850F0020006490860D9
:100CB0000548006810F00C000828F9D102B0704710
:100CC0000000000000100240041002400000FFF885
:100CD000FFFFF6FE0810024008ED00E00020024091
:100CE00010B5074979441831064C7C44163404E0A9
:100CF0000A68081D511888470146A142F8D110BD65
:100D00000800000028000000DBFDFFFF04000000D9
:100D10001800002000000000F7F8FFFF1800000096
:100D20008C010000000000200000000000F00BF823
:100D3000002801D0FFF7D4FF0020C046C046FFF7CF
:100D40002FFA00F002F80120704700F001B800000F
:100D50000746384600F002F8FBE7000080B5C046C1
:100D6000C046024A11001820ABBEFBE72600020075
:100D70000148804701480047850B00088D0D000899
:100D80002A2A2A2A2A2A3A295A610000C046C0463D
:100D9000C046C046FFF7CAFFFFF7FEBFFFF7FEBF22
:100DA000FFF7FEBFFFF7FEBFFFF7FEBFFFF7FEBF77
:100DB000FFF7FEBFFFF7FEBFFFF761BBFFF7FEBF08
:100DC000FFF7FEBFFFF7FEBFFFF7FEBFFFF7FEBF57
:100DD000FFF7FEBFFFF7FEBFFFF7FEBFFFF7FEBF47
:100DE000FFF7FEBFFFF7FEBFFFF7FEBFFFF7FEBF37
:100DF000FFF7FEBFFFF7FEBFFFF7FEBFFFF7FEBF27
:100E0000FFF7FEBFFFF7FEBFFFF7FEBFFFF7FEBF16
:100E1000FFF7FEBFFFF7FEBFFFF7FEBFFFF7FEBF06
:100E2000FFF7FEBFFFF7FEBFFFF7FEBFFFF7FEBFF6
:100E3000FFF7FEBFFFF7FEBFFFF7FEBFFFF7FEBFE6
:100E4000FFF7FEBFFFF7FEBFFFF7FEBFFFF7FEBFD6
:100E5000FFF7FEBFFFF7FEBFFFF7FEBFFFF7FEBFC6
:100E6000FFF7FEBFFFF7FEBFFFF7FEBFFFF7FEBFB6
:100E7000FFF7FEBFFFF7FEBFFFF7FEBFFFF7FEBFA6
:100E8000FFF7FEBFFFF7FEBFFFF7FEBFFFF7E1BAB8
:100E9000FFF7FEBFFFF7FEBFFFF7FEBFFFF7FEBF86
:100EA000FFF7FEBFFFF7FEBFFFF7FEBF0000000029
:100EB00001020304010203040607080902040608EC
:040EC00000A24A043E
:0400000508000D8D55
:00000001FF
