:020000040800F2
:1000000028110020BD2C0008DD2B0008DF2B000884
:10001000E12B0008E32B0008E52B0008000000009E
:10002000000000000000000000000000E72B0008B6
:10003000E92B000800000000EB2B0008ED2B000866
:10004000FD2C0008012D0008052D0008092D0008D1
:100050000D2D0008112D0008152D0008192D000880
:100060001D2D0008212D0008252D0008292D000830
:100070002D2D0008312D0008352D0008392D0008E0
:100080003D2D0008412D0008452D0008492D000890
:100090004D2D0008512D0008552D0008592D000840
:1000A0005D2D0008612D0008652D0008692D0008F0
:1000B0006D2D0008712D0008752D0008792D0008A0
:1000C0007D2D0008812D0008852D0008892D000850
:1000D0008D2D0008912D0008952D0008992D000800
:1000E0009D2D0008A12D0008A52D0008A92D0008B0
:1000F000AD2D0008B12D0008B52D0008B92D000860
:10010000BD2D0008C12D0008C52D0008C92D00080F
:10011000F52B0008D12D0008D52D0008D92D000899
:10012000DD2D0008E12D0008E52D0008E92D00086F
:100130002DE9F04F80460FF21860A5B017461D4616
:10014000D0E90023CDE91223002004910D900DF198
:10015000500A6FF0004900E0E7190020ADF80200F6
:1001600012AB4FF0FF3239460DF1020001F087F873
:100170000446012C04DA3878441EA441E043C40F3D
:10018000BDF8020025280CBFA4F1010BA346BBF16A
:10019000010F0EDB3E4616F8011B0498C047049081
:1001A000002800F0CF820D98401C0D90BBF1010B90
:1001B000F1D1BDF80200252807D100200790089052
:1001C00009900A900B900C9005E00028C4D10D987E
:1001D000BAE240F0010017F8011F2029F9D02329C5
:1001E0000DD02B2904D02D2906D030290AD00CE0BF
:1001F00040F0020080B2EEE740F00400FAE740F081
:100200000800F7E740F01000F4E72A290ED129682A
:10021000296051F8042B29600F92002A04D551421D
:1002200040F004000F9180B27F1C11E000210F917B
:1002300009E00F99494505D001EB810302EB430129
:1002400030390F917F1C3A78A2F130010A29F0D39E
:1002500039782E2903D04FF0FF310E911DE017F8A9
:10026000011F2A2907D1296829607F1C51F8042B16
:1002700029600E9211E000210E9109E00E99494586
:1002800005D001EB810302EB430130390E917F1C55
:100290003A78A2F130010A29F0D3ADF840000FF20C
:1002A000B840397801F00CF808B117F8010B8DF857
:1002B00042009DF84200682802BF39786829622010
:1002C00005D06C2804BF38786C2803D171208DF8D4
:1002D00042007F1C14A8069017F8014BB4F12500CA
:1002E0002AD01C3800F0CC80001F022840F2C880C1
:1002F000133800F0EE80093800F0C280801E00F054
:100300004F81401E00F02481401E022840F2B88038
:10031000001F00F01D81401F00F08380401E00F090
:10032000D880401E2DD0C01E0CD0801E00F0D18081
:10033000C01E00F0CE8056E10120079025208DF8E8
:1003400050005BE19DF842006C282868286014D0BA
:1003500050F8046B286005960E9C002C04D530469E
:1003600000F0BEFF044606E022460021304600F0C1
:10037000D3FF00B1841B089440E150F8042B28609F
:100380002AE13C242968296051F8040B29600021E6
:10039000CDE9020114A80590DDE90201069E11B91C
:1003A00008B90E9AB2B10206120FA0EB0212303257
:1003B000631ED2B21C463A2AA8BF273200099A55BA
:1003C00040EA0170090908BF002803D0059AA31963
:1003D0009A42E8D3A0190590C4F13C010E98089107
:1003E000814209DA401A0A904FF6EF71BDF84000D9
:1003F0000840ADF8400001E1002840F1FF809DF881
:10040000400000F01400102840F0F8800F98079A80
:10041000801A0A9A801A401A0128C0F2EF800A90C6
:10042000ECE09DF8420062281AD0682806D06A28BD
:100430000CD06C281CD0712808D019E028682860DE
:1004400050F8041B28600D980880D7E028682860C1
:1004500050F8042B28600D98C117C2E90001CDE0C7
:100460002868286050F8041B28600D980870C5E0C3
:100470002868286050F8041B28600D980860BDE0CB
:100480002868C01D20F007022A60D2E90001083266
:100490002A60CDE90201002903D5012007902D2013
:1004A0000CE0BDF84000810703D5012007902B2008
:1004B00004E0C00704D50120079020208DF85000EB
:1004C000079914A808180590214602A800F08CFB93
:1004D00094E09DF842206C2A0DD0712A18BF6A2A38
:1004E00009D12868C01D20F007032B60D3E9000163
:1004F00008332B6005E02968296051F8040B296056
:100500000021CDE90201682A08BF80B207D0622A23
:1005100008BFC0B203D0742A18BF7A2A02D10021C2
:10052000CDE902019DF84000000730D5DDE9020168
:10053000002908BF00282AD044F02000782826D1BE
:1005400030208DF850008AF80140022007901EE00C
:1005500029469DF8420000F003F9CDE90201002987
:1005600004DA0798411C07912D210EE0BDF84000E8
:10057000810704D50798411C07912B2105E0C0078E
:1005800005D50798411C0791202100F80A1007990A
:1005900014A808180590214602A800F0A1FA2DE041
:1005A0009DF842006C2809D0012007902868286037
:1005B00050F8041B28608DF850101FE001AA28682D
:1005C000286050F8041B2860ADF804100020ADF836
:1005D00006004FF0FF300E9002A9404600F0F7F8F9
:1005E00000280BD5AEE00120079025208DF85000A3
:1005F00024B10798411C079100F80A400F98079909
:10060000401A0A99401A0899401A0B99401A0999F8
:10061000401A0C99441A9DF84000400710D420203D
:100620008DF80000002609E0012300AA02A9404637
:1006300000F001FE002840F08580761CA642F3DB26
:10064000079E0DF1500B0AE01BF8011B0498C047F0
:100650000490002876D00D98401C0D90761E002E38
:10066000F2D130208DF800004FF0000B0A9E09E017
:10067000012300AA02A9404600F0DDFD002861D157
:100680000BF1010BB345F3DB089EDDF814B00AE073
:100690001BF8011B0498C0470490002852D00D9805
:1006A000401C0D90761E002EF2D130208DF80000F7
:1006B0004FF0000B0B9E09E0012300AA02A940465F
:1006C00000F0B9FD00283DD10BF1010BB345F3DB80
:1006D00005980899099E01EB000B09E01BF8011B26
:1006E0000498C047049068B30D98401C0D90761E86
:1006F000002EF3D130208DF800004FF0000B0C9E3F
:1007000008E0012300AA02A9404600F094FDC8B900
:100710000BF1010BB345F4DB9DF8400040077FF57A
:100720001CAD20208DF80000002600E0761CA642BB
:10073000BFF613AD012300AA02A9404600F07BFDDD
:100740000028F3D04FF0FF3025B0BDE8F08F000057
:100750000000000000000000686A6C747A4C000021
:10076000622826D068281DD06A2808D06C2827D097
:10077000712804D0742823D07A280CD020E008688F
:10078000C01D20F007000860D0E900230830086091
:100790001946104670470A680A6052F8040B0A604E
:1007A000002170470A680A6052F8040B0A6000B220
:1007B0000BE00A680A6052F8040B0A6040B204E0D9
:1007C0000A680A6052F8040B0A60C11770472DE9E5
:1007D000F44F0D4694B0D5F830B08046BBF1000F11
:1007E00048BF6FF0004B00F0C3FD696B40180190EB
:1007F0000FF67020D0E90023CDE9022395F83800E8
:10080000400702D40198412806D240200DF1100A79
:1008100001904FF0000909E000F0B0FD5FEA000A26
:10082000F7D14FF0FF3058E1ABEB040BBBF1010FF8
:10083000C0F2CD801498018802AA0DF1010000F0E9
:10084000F5FD0446002800F1D5801498008810B901
:10085000641E00F1CF80A345C0F2B9806869019998
:100860002218914280F0A180C5F834904042296A54
:10087000401AA969401A696A401AE969401AA96AC6
:10088000A0EB010995F83800400710D420208DF81E
:100890000000002609E0012300AA2946404600F096
:1008A000CAFC002840F0A680761C4E45F3DB6E693A
:1008B00057460BE017F8011BA868C047A86000283E
:1008C00000F09880E86A401CE862761E002EF1D1A4
:1008D00030208DF8000000272E6A09E0012300AACD
:1008E0002946404600F0A7FC002840F083807F1C8A
:1008F000B742F3DBAE69EF680AE017F8011BA8689E
:10090000C047A860002875D0E86A401CE862761EDF
:10091000002EF2D130208DF8000000276E6A08E02A
:10092000012300AA2946404600F085FC002861D139
:100930007F1CB742F4DBE868A969EE690F180AE08A
:1009400017F8011BA868C047A860002852D0E86AC1
:10095000401CE862761E002EF2D130208DF8000097
:100960000027AE6A08E0012300AA2946404600F0AD
:1009700062FC00283ED17F1CB742F4DB95F83800BA
:1009800040070ED520208DF80000002607E0012347
:1009900000AA2946404600F04EFC58BB761C4E4546
:1009A000F5DB4FF00009C5F81490224668690DF197
:1009B0000101504400F048FD6869201868611498EE
:1009C000801C1490801E008800287FF42DAF686B77
:1009D0006969401A296A401AA969401A696A401A65
:1009E000E969401AA96A471A95F83800400710D4F7
:1009F00000240CE04FF0FF3968E0A8682021C047D0
:100A0000A8600028F6D0E86A401CE862641CBC427A
:100A1000F3DB6B6952462946404600F00CFC002887
:100A2000E8D12C6A002609E0A8683021C047A860F8
:100A30000028DFD0E86A401CE862761CA642F3DB9F
:100A4000AB69EA682946404600F0F5FB0028D1D1A1
:100A50006C6A002609E0A8683021C047A860002819
:100A6000C8D0E86A401CE862761CA642F3DBE8685E
:100A7000A969EB690A182946404600F0DCFB00280A
:100A8000B8D1AC6A002609E0A8683021C047A86048
:100A90000028AFD0E86A401CE862761CA642F3DB6F
:100AA00095F8380040070DD5002409E0A8682021FA
:100AB000C047A86000289DD0E86A401CE862641C1A
:100AC000BC42F3DBC5F81490C5F8349004A8824505
:100AD0001CBF504600F0F4FC484615B0BDE8F08F4E
:100AE0002DE9FA4E05460A462F696F2A08BF0824E9
:100AF00005D041F02000782814BF0A241024D5E93D
:100B000000013C2681468A46642A18BF692A05D11D
:100B1000002903DAD9F100096AEB4A0ABAF1000F99
:100B200008BFB9F1000F0CD1286B50B9082C36D191
:100B300095F83800000732D530203B2687F83B0077
:100B40002DE0E31748465146224600F0F9FCA4FB8D
:100B50000023A9EB02023032A6F1010BD2B25E46AD
:100B60003A2A03DB9DF80030513B9A180BF8072016
:100B700081465FEA010A08BFB9F1000F03D0E868B7
:100B8000F1198842DDD3082C09D195F83800000707
:100B900005D5F05D302802D0761E3020F055C6F124
:100BA0003C00A861F119E960296B884208DA081A4B
:100BB00028624FF6EF71288F08402887BDE8F38E32
:100BC00000290ED595F8381001F01401102908D12C
:100BD000696B6A69891A2A6A891A081A0128A8BFE2
:100BE0002862BDE8F38E00002DE9F24F04468EB076
:100BF000D4E90001CDE9020104AF9DF8380040F0CE
:100C0000200BBBF1610F0AD0206B002848BF0620E3
:100C100004D408BFBBF1670F01D1012020636168D4
:100C2000C1F30A5040F2FF7290421CD1080304BF86
:100C30002068002809D10320A0619DF838006138A0
:100C40001A2836D30FF2306108E00320A0619DF826
:100C5000380061381A2829D30FF21461E0680322A2
:100C600000F0F2FBBEE1012816DA204600F0DFFCBE
:100C7000012811DB00250020BBF1610F20D1E168C4
:100C8000302201F8012B4A1CE2609DF83820612ACD
:100C90000CBF782258220FE0626840F2FE3161F307
:100CA0001E52451A62604FF0FF30E5E70FF2BC516B
:100CB000D4E70FF2C051D1E70A706169891C616104
:100CC00010B90026002584E1BBF1610F40F0978048
:100CD000206B00284CBF2126461CDDE90201D4E927
:100CE00000AB0022002336B200F0C2FC06F101087E
:100CF0003ABF8BF00040CDE902A0CDE902AB2D1F39
:100D00008DF810200DF1110700E0C71DB8F1010F9B
:100D100033DBDDE902010022002300F0C1FC2CD20C
:100D20001C2102A800F0D4FCDDE9020100F056FD10
:100D3000A8F107088146B8F1010F09DB00F07AFD40
:100D400002460B46DDE9020100F08CFDCDE902010F
:100D5000F81D072105E009F00F0200F8012D4FEA08
:100D60002919B9F1010F01DB491EF4D5491E5CBFF9
:100D7000002200F8012DF9D5C7E70DF11100391A4D
:100D80000DF11107B142B8BF0E4636B230002FD474
:100D9000884206DA04A9411849780829A8BF0F211A
:100DA00000DA002104AA821800E0761E12F8013948
:100DB000401E8B42F9D00F2904D104A941184A786A
:100DC000521C4A70002802D504AF761C2D1D36B285
:100DD000701E0DD4C1190A783032D2B23A2A03DB20
:100DE0009DF838303A3B9A1801F80129401EF2D597
:100DF000206B002840F1ED80701E2063E9E0DDE902
:100E000002010022002300F033FC3CBF81F00041CE
:100E1000CDE902012DB247F2975068434B49DFF804
:100E2000309190FBF1F52DB2C5F1070A9046BAF169
:100E3000010F1CDBDDE902675FEACA7007D5424695
:100E40004B463046394600F0CDFD06460F464FEA88
:100E50006A0A4046494642464B4600F0C3FD80467A
:100E60008946BAF1000FE7D1CDE9026724E0CAF163
:100E7000000A0026374F14E05FEACA7007D54246E1
:100E80004B463046394600F0ADFD06460F464FEA68
:100E90006A0A4046494642464B4600F0A3FD80465A
:100EA0008946BAF1000FE7D1DDE9020132463B463F
:100EB00000F06AFECDE90201BBF1660F0CBF05F13F
:100EC0000A000620216B4618142EA8BF13263020D6
:100ED0008DF810000DF11107DFF87C90012E3DDB3D
:100EE000DDE9020100F090FC07F1080104220A2369
:100EF000B0FBF3F303EB8307A0EB4700303001F8BE
:100F0000010D0A20B3FBF0F000EB8007A3EB4703D1
:100F1000303301F8013D521EE9D1083E01F10807C6
:100F2000012EDBDBDDE9020100F06EFC00F08CFC41
:100F300002460B46DDE9020100F094FC00224B461C
:100F400000F050FDCDE90201CAE700BFA086010014
:100F5000000024400000F03F84D797410DF11100BC
:100F6000381A0DF1110702E0401E6D1E7F1C397802
:100F70003029F9D0BBF1660F02D12DB2691C04E013
:100F8000BBF1650F0CBF01210021226B8E1836B218
:100F9000B042B8BF064636B231001AD4814204DAF4
:100FA000C85D3528A8BF392000DA3020CA19521E82
:100FB00000E0761E12F80139491E8342F9D0392823
:100FC00002D1C85D401CC855002902D57F1E761C81
:100FD0006D1C2DB29DF83810009533B23A4620466C
:100FE00000F003F80FB0BDE8F08F2DE9F04786B0B0
:100FF00006468A4690461D4600F007FF406A376B5A
:1010000090F80090012D02DA01250FF270284AF0C5
:101010002000BDF93840662808BF641C12D067283C
:1010200076D114F1040F79DBBC4277DA96F83800F8
:10103000641C000702D4BD42B8BF2F4624B23F1B38
:1010400048BF0027F068B16924B2012C21DA3023AF
:101050004A1C0B54012F03DA96F83810090702D501
:1010600002F80090521CB261E742B8BF7C4224B241
:101070006142E7197162AF42B8BF3D462DB2F561DA
:101080002A46B3694146181800F0DEF9781BB062B1
:10109000BAE00818A54216DA2A46414600F0D4F90B
:1010A000B1696918B161601B7062012F03DA96F8AB
:1010B0003800000705D5F06801F80090F069401C81
:1010C000F061B762A0E02246414600F0BDF9B06988
:1010D00020182D1B012F03DA96F83810090703D5C5
:1010E000F16800F80190401C2DB2B061AF42B8BF6A
:1010F0003D46F068B3692DB22A4604EB0801181882
:1011000000F0A2F9B0692818B061781B70627BE02A
:10111000BAF1610F14D14FF0700A16E0BD4204DA43
:1011200096F83810090758BF2F467F1E48BF002782
:10113000BAF1670F14BF4FF0450A4FF0650A04E09B
:10114000BAF1410F08BF4FF0500AB169F06818F8C2
:10115000013B0B544A1C012F05DA96F83810090799
:1011600058BFB26115D502F80090531CB361012F2E
:101170000FDB6D1E2DB2AF42B8BF3D462DB22A46E1
:101180004146181800F060F9B0692818B061781B62
:101190007062F068B16901EB0008200008F801AB4B
:1011A00003D42B2008F8010B03E02D2108F8011BC4
:1011B0006442002502AF08E00A2200A800F03EFECB
:1011C000019807F8010B6D1C009C21B20129F3DA8C
:1011D000022D06DA4AF02000652804BF302008F806
:1011E000010B4DB9302008F8010B07E06D1E02A875
:1011F000285C303008F8010B012DF7DAF068B1698E
:101200000818A8EB0000F06196F8380000F0140010
:1012100010280DD17069B1690818716A0818F16950
:101220000818B16A0818716B8842BCBF081A30628E
:1012300006B0BDE8F087F8B504460D4616461F46D1
:10124000002004E0E86A401CE8627F1E002047B1ED
:1012500016F8011BA868A047A8600028F2D14FF03B
:10126000FF30F2BD00000000000000006E616E0063
:101270004E414E00696E6600494E46003000F8B59A
:1012800004460D4616461F4600F0E0FD3B4632463A
:101290002946204601B0BDE8F04000F0EEBD50F810
:1012A000041B61B150F8042BD30744BFA9F101031B
:1012B0009A18002342F8043B091FFAD1EFE7704760
:1012C0000278C9B28A421AB11CBF10F8012FF9E79F
:1012D00018BF002070470268531C036011707047EC
:1012E00000F10103810704D010F8011B89B18107C7
:1012F000FAD10268B2F10131914311F0803F04BF8D
:1013000050F8042FF6E710F8011B11B110F8011B7B
:10131000FBE7C01A70470000C9B2830706D0521E0F
:1013200022D310F8013B9942F7D11FE0083A13D3BA
:1013300002F1040241EA012141EA014150F8043B73
:10134000121F21BF4B40A3F1013C2CEA030C1CF0FF
:10135000803FF3D0C9B2001F083210F8013B521E83
:1013600028BF91EA030FF8D818BF0120401E70472C
:1013700080B500F06BFD012002BD000070B5054690
:1013800005F10F00C408E400C046C046A54232D2B1
:10139000082C04D2082402E0083000F091F822481A
:1013A000026811000CD1011D0A6802B31368A34240
:1013B00038BF111DF8D310E01D68A5420DD2191DCC
:1013C0000B68002BF8D11268011D00E0191D0B6895
:1013D00093420CD01D68A542F8D361B10D682A680C
:1013E000A2F10803A3420AD26A680A600FE000F083
:1013F00067FD0028D0D1C046C046002070BD6319EB
:101400000B60121B6E685E600B681A602C600968C6
:1014100000291DBF4A68002A091D00210160C0463D
:10142000C04605F1080070BD1401002070B50446E7
:101430000D46164600F00AFD324629462046BDE814
:10144000704000F00DBD000062B38B0708D0521E43
:1014500011F8013B00F8013B00F024808B07F6D126
:10146000830740F0208000BF103A07D330B4B1E8C2
:101470003810103AA0E83810F9D230BC530724BF16
:10148000B1E80810A0E8081044BF51F8043B40F848
:10149000043BD20724BF31F8022B20F8022B44BFB3
:1014A0000B7803707047083A07D3B1E80810083A80
:1014B00040F8043B40F804CBF7D25307E4E70000C0
:1014C00000B9704738B5A0F108042068082833D364
:1014D00010F0070F30D1C046C0461848416809B126
:1014E0008C4203D26160446017E019464B680BB12F
:1014F000A342FAD30B685D18AC421BD3A54204D1BA
:101500002268D2180A600C4607E04A681AB12368BC
:101510001B199A420ED362604C60616851B1226817
:1015200013198B4206D100230360086880182060DD
:1015300048686060C046C04631BD0000140100200C
:101540001B4213D1094236D12AB18446B0FBF2F0D6
:1015500002FB10C2704700F0C9BCFCD3002200237C
:1015600070470B000200002100207047904271EB91
:10157000030CF6D370B5B1FA81F4B3FA83F52C1BE2
:10158000A340C4F1200532FA05F63343A2405FF0D0
:101590000046E64002E05B085FEA3202841A71EB23
:1015A000030524BF204629467641F4D302000B00F0
:1015B0003000002170BD012ACFD970B5140C20D0A5
:1015C000B1FA81F4B2FA82F5C4F120046419B4F1DD
:1015D0002006D6D3B2405FF00044F440002502E07C
:1015E00052085FEA3303C61A71EB020E24BF30467D
:1015F000714664416D41F3D302000B0020002900C5
:1016000070BD0C46B1FBF2F102FB11452D0445EA19
:101610001045B5FBF2F402FB145580B240EA0545D3
:10162000B5FBF2F002FB105240EA044070BD30B44A
:10163000436803F0004201211B031B0B436004BFFE
:101640000368002B08D10DE00368DD0F45EA440470
:1016500044605B000360491E4468E302F4D5230341
:101660001B0B436043681A434260084630BC704716
:101670004FF4001C1CEB410F94BF1CEB430F09E01F
:1016800041EA030C50EA4C0C52EA0C0C03D299428A
:1016900008BF9042704714BF8B42824270470000DF
:1016A0004FF4001C1CEB410F94BF1CEB430F09E0EF
:1016B00041EA030C50EA4C0C52EA0C0C03D28B4268
:1016C00008BF8242704714BF9942904270470000A1
:1016D00070B504460D466068C0F30A5040F2FF71D1
:1016E000884207D16068000304BF2068002817D033
:1016F000022070BD20B92046FFF799FF012867DA64
:10170000012D0FDB40F2FF71091A8D420AD3606888
:10171000002847BF00202F4900202F49C4E90001BD
:10172000012070BD4142A942616806DA6FF31E5183
:10173000401941EA0050606041E0401E63680122A8
:10174000451962F31F5305F1350001F00041636054
:10175000352803D361600020206070BD002215F1A0
:101760001F0F04DA22682360002020356060684281
:1017700013D0521E25689241C0F12003D2439D40F0
:1017800045EAD27225686668C54006FA03F32B4322
:101790002360636823FA00F060606068084360605B
:1017A000B2F1004F03D80DD12078C0070AD52068C8
:1017B000401C2060206828B96068401C60604FF0C1
:1017C000FF3070BD6068884204BF20680028F6D1F1
:1017D000002070BD0000F0FF0000F07FF446400DD7
:1017E00040EAC120490006D200F014F8004248BF88
:1017F0006FF00040604700F00DF84FF00041884264
:101800008CBF084640426047400D40EAC120490075
:1018100080F00D8040F00040490DA1F58061491C29
:1018200005D4D1F11F0154BFC840C01770474FF015
:1018300000007047010040F10980F446404200F08A
:1018400005F851F000416047010000BF09D0B0FA2F
:1018500080F18840C91CC1F58461090501EBD021E4
:101860004005704770B44FF0004591EA030F44BF44
:101870006B4000F03DBB00BF841A71EB030604D23D
:101880006E40001BB141121973414FF4001C1CEB58
:10189000410F34BF7CEB430684E00C0DA4EB1356E0
:1018A000362E7DDC012E43DC45EAC32343EA525346
:1018B00012BFD20292025B08240545EAC12141EA27
:1018C0005051D2EBC020994125D407D1B0FA80F60F
:1018D00010FA06F164D00020203608E0B1FA81F653
:1018E000B140C6F1200220FA02F21143B0404FEAA3
:1018F000F474B4EB465434F001064FEA74040AD889
:10190000D6F50016760D04F00044F04061FA06F2B8
:101910005040F1404840C00A40EA415021F00041A7
:1019200028BF5FEA500550F1000044EBD12137E0B9
:1019300045EAC323DB0A45EAC121C90AB6F12005FD
:101940000EDD42EA0242120CC5F1200603FA06F649
:10195000EB4042EA06056D42984161F100010DE05D
:1019600062FA06F5F240554063FA06FC82EA0C0280
:10197000F3405A406D42904161EB030111F4801F26
:1019800005D1641E620502D06D004041494121F439
:101990008011430875F1004350F1000041EB045100
:1019A00070BC70471CEB410F15D223F0004352EA84
:1019B00043060BD04FEA4C0CBCEB410F04D80C0D86
:1019C000661E342EB7DDEBE7801A994150EA4106D6
:1019D00008BF0021E4E708BF1CEB430F28BF6FF0EE
:1019E0000001DDE7B0B581EA030C0CF0004C40F2D9
:1019F000FF7515EA11541DBF15EA1357AC42AF42EB
:101A000039E0E41923EA455343F48013C90241F055
:101A1000004141EA505EC7021100A7FB0202002804
:101A20004FF00000EEFB01204FF00001E3FB072127
:101A300018BF42F00102401800214941E3FB0E01AA
:101A4000A4F580640F0302D252004041494154F191
:101A500001046CDD470872F1004250F1000051EBC7
:101A60000451A1F580115CBF41EA0C01B0BD4CEA04
:101A700005510020B0BD05EA1357AC4214BFAF4278
:101A800041E050EA410E1CBF52EA430E02E06146BB
:101A90000020B0BD24423C441BD15FEA070EF6D0C3
:101AA000090302BF01460020AEF1140EB1FA81F71E
:101AB000AEEB070401FA07FE0C37C7F1200100FA6C
:101AC00007F7C8404EEA000E23EA455343F480135B
:101AD000A2E733F00043B3FA83F704BFB2FA82FE01
:101AE00077440B3FE41BB7F1200E2FBF02FA0EF331
:101AF000BB40C7F1200E22FA0EFE38BF43EA0E03A8
:101B0000BA40641C82E750EA410E14BF52EA430E09
:101B10006FF000014FF4001717EB430F8ABF19460F
:101B200017EB410FB5E74CEA05510020B0BDD4F1E9
:101B30000104B4F120070FDAC4F12007520828BFCE
:101B400042F0010210FA07F501FA07F7E1BF2A4354
:101B5000E0403843E1400FE0352C98DCC7F1200429
:101B600052EA400220FA07F218BF42F0010231FAAD
:101B700007F0A1400A43002172F1004250F1000039
:101B800051EB0C01B0BD0000F0B540F2FF7581EAE9
:101B9000030C0CF0004C15EA11541DBF15EA135745
:101BA000AC42AF42E5E0BC41C1F31301C3F3130300
:101BB000801A994143F4801304D2641E40004941C5
:101BC00080185941C90241EA5051B1FBF3F603FBB9
:101BD0001611A2FB0675D7EBC020A94102D2761ED2
:101BE00080185941C90241EA5051B1FBF3FE03FB91
:101BF0001E11A2FB0E75D7EBC020A94103D2AEF196
:101C0000010E80185941890241EA9051760546EA51
:101C10008E2EB1FBF3F603FB1611A2FB0675D7EB74
:101C20008020A94102D2761E80185941C90241EA9A
:101C300050514EEA060EB1FBF3F603FB1611A2FB60
:101C40000675D7EBC020A94102D2761E80185941F3
:101C5000C90241EA5051B1FBF3F703FB1711A2FB94
:101C60000735D3EBC020A94167F100070CBF004244
:101C700047F0010766F3D5274FEA1E31B80814F57F
:101C8000806412DDBD0775F1004250EB0E5051EB40
:101C9000045111F5801F5CBF41EA0C01F0BD4CF00E
:101CA0007F6141F0E0410020F0BDBD076D0840EAD2
:101CB0000E5041F48011D4F10104B4F120060ADA87
:101CC000C4F120060200E04001FA06F3E1401843A7
:101CD000B24015430EE0342C13DCC6F1200445EA73
:101CE00040056D0820FA06F2154321FA06F0A140DE
:101CF0000D43002175F1004250F1000051EB0C0141
:101D0000F0BD00205FEA0C01F0BDCFB992185B4135
:101D1000B3FA83F704BFB2FA82F6BF190B3FB7F1EB
:101D200020062FBF02FA06F3BB40C7F1200622FAB5
:101D300006F638BF3343BA401CB1E419641E33E7DA
:101D40007F4231F00041B1FA81F404BFB0FA80F66D
:101D5000A4190B3CB4F120062FBF00FA06F1A140F4
:101D6000C4F1200620FA06F638BF3143A0403C1BE0
:101D70001AE7AC421ABF05EA1357AF4212E050EA25
:101D800041061CBF52EA4306BFE750EA410730460E
:101D900061461CBF41EA0551F0BD52EA430C08BF41
:101DA000C143F0BD00204FF4001616EB410F98BF61
:101DB00016EB430F08BF16EB410F24BFC14305E0EC
:101DC00016EB430F0CBF61464CEA0551F0BD000015
:101DD00080B5134800F0F6F80FF248010160416049
:101DE0008160C1600161416181610FF23C02426228
:101DF0008162C162016341630FF2300282630FF2BC
:101E00003402C2630164416401BD10B5044800F0AE
:101E1000D9F80446206808B9FFF7DAFF204610BD5C
:101E200000000020000000002E00000066616C73BE
:101E300065000000747275650000000091FBF2F30C
:101E400003FB1211C0E900317047000080B5DFF8D4
:101E50000C0000F0B7F8806902BD0000900000207F
:101E600030B430B90FF24800D0E90045C2E900456E
:101E70001BE00170012030BC704730B431B90FF263
:101E80003800D0E90045C3E900450EE01AB930BC7E
:101E90006FF00100704708B10A7802800978481E87
:101EA000804130BCC043C00F7047002030BC704739
:101EB0000000000000000000000000000000000022
:101EC0000749086808B1002070470648C008C000EC
:101ED00008600549C908C900091A0160704700BFB8
:101EE0001C0100202F110020282100207047000035
:101EF000841A71EB030603D2001BB141121973411E
:101F00004FF4001C1CEB410F34BF7CEB430443E057
:101F10000C0DA4EB1356352E50DC45EAC323DB0A27
:101F200045EAC121C912B6F120050DDD63FA05F6B7
:101F3000EB4086EA0305124218BF45F00105C018C0
:101F400051F100010CD213E062FA06F5F24055405F
:101F5000F3415A40B340F3405A408018594107D3E7
:101F600049085FEA30005FEA350528BF45F0010502
:101F700001F58011420875F1004250F1000041EB7B
:101F8000045170BC4FF4001C1CEB410F38BF70476C
:101F90000020090D090570471CEB410F10D252EAD1
:101FA00043060BD0BCEB410F05D80C0DAB43661EAE
:101FB000342EB5DD02E0AB438018594170BC704748
:101FC00070BC704770470000DFF88402006850F072
:101FD0000100DFF87C120860DFF878020068DFF8A3
:101FE00078120840DFF86C120860DFF864020068BD
:101FF000DFF868120840DFF858120860DFF8500276
:10200000006830F48020DFF848120860DFF84402EE
:10201000006830F4FE00DFF83C1208605FF41F0037
:10202000DFF83C1208607047DFF82412096831F4C9
:102030008031DFF81C221160DFF81412096831F4D6
:102040008021DFF80C221160B0F5803F03D0B0F59D
:10205000802F09D011E0DFF8F801006850F48030DB
:10206000DFF8EC11086008E0DFF8E401006850F4E4
:10207000A020DFF8DC110860FFE770470022754BF5
:102080001B681A0032F47C12084302437148026054
:102090007047C0B273490860704700216D4A1268EA
:1020A00011008908890001436A4801607047694846
:1020B000006810F00C0070470021664A1268110099
:1020C00031F0F00101436348016070470021614A2B
:1020D0001268110031F4E06101435E48016070470D
:1020E00000215C4A1268110031F4605151EAC001CC
:1020F0005848016070470021564A1268110031F4B7
:102100004041014353480160704730B40022002130
:10211000002300244F4D2D6815F00C052A00002ADD
:1021200004D0042A05D0082A06D021E04F490160D6
:1021300020E04F4901601DE04649096811F4701123
:10214000444A126812F48033890C891C002B03D195
:10215000484A514301600AE03E4A1268920303D59F
:10216000424A5143016002E0414A5143016001E0AB
:102170003E4901603749096811F0F00212093E49F1
:10218000545C0168E14041603249096811F4E06241
:10219000120A3949545C4168E14081602D4909685F
:1021A00011F46052D20A3449545C4168E140C16084
:1021B0002849096811F44042920B3049545CC168C7
:1021C000B1FBF4F1016130BC7047C9B2002905D000
:1021D0002B49096808432A49086005E0284909682D
:1021E00031EA0000264908607047C9B2002905D0CD
:1021F0002449096808432349086005E02149096822
:1022000031EA00001F490860704710B40022002323
:102210000021C0B24409E4B22200012A02D10C49D3
:102220000B6806E0022A02D10F490B6801E016494B
:102230000B68C0B210F01F0233FA02F0C00701D5DC
:10224000012100E000210800C0B210BC704700006E
:1022500000100240041002400000FFF8FFFFF6FEED
:1022600008100240600042422010024000127A0032
:102270000024F40000093D00FC0000200C010020B7
:10228000181002401C10024024100240F0B585B026
:1022900004000D0000200021002200230026AF8949
:1022A000002F2600208A4CF6FF710840E988084379
:1022B0002082A0894EF6F3110840A9882A8911438B
:1022C0006A8911430843A081A08A4FF6FF41084064
:1022D000A9890843A08200A8FFF717FF1B48864280
:1022E00001D1039900E00299A089000407D51920C3
:1022F00000FB01F029684900B0FBF1F206E019206B
:1023000000FB01F029688900B0FBF1F26420B2FB08
:10231000F0F000010109642303FB1123A1890904E2
:1023200008D5D90032316422B1FBF2F111F0070176
:10233000084307E0190132316422B1FBF2F111F0D8
:102340000F010843208105B0F0BD000000380140B6
:10235000C9B2002904D0818951F40051818104E07F
:1023600081894DF6FF72114081817047F0B40023DE
:1023700000240025002689B240F66A17B9420600FB
:102380000800C0B24309DBB289B211F01F0401207A
:1023900010FA04F5012B01D10C3604E0022B01D117
:1023A000103600E01436D2B2002A03D03068284339
:1023B000306002E03068A8433060F0BC7047C90567
:1023C000C90D818070478088C005C00D704700220C
:1023D00089B2B1F5007F0088084201D0012200E0F7
:1023E00000221000C0B2704770B400230024002502
:1023F000002289B240F66A16B1420A00D2B25509EB
:10240000EDB289B211F01F04012212FA04F4012D79
:1024100002D18289144006E0022D02D1028A1440C2
:1024200001E0828A144089B20B0A9BB2012111FAA1
:1024300003F300880340002C03D0002B01D00122BD
:1024400000E000221000C0B270BC704710B400223F
:10245000002389B240F66A14A14289B20A0A012116
:1024600011FA02F39BB2D943018010BC70470000FF
:10247000012110F01F0291405F4A40B2400942F82A
:102480002010704780B5FFF79FFD5FF48030FFF7A5
:10249000CBFD3120FFF7B9FE0028FAD00020FFF76E
:1024A0000BFE0020FFF71CFE4FF48060FFF70EFECE
:1024B0004FF48040FFF71FFE5FF4E0115FF44030FF
:1024C000FFF7DCFD0120FFF7E4FD3920FFF79DFE5B
:1024D0000028FAD00220FFF7E0FDFFF7E8FD08280A
:1024E000FBD101BD00B585B001215FF40020FFF7ED
:1024F0007CFE01211020FFF768FE4FF40060ADF86C
:10250000000004208DF8030000A93C4800F07CF88E
:102510004FF48060ADF8000003208DF80200182011
:102520008DF8030000A9354800F06EF85FF4E13043
:1025300001900020ADF808000020ADF80A0000204E
:10254000ADF80C000020ADF810000C20ADF80E0026
:1025500001A92B48FFF79AFE01212948FFF7F8FE51
:1025600005B000BD80B54FF4407000F0B7F83420DE
:102570008DF800000E208DF8010000208DF802007B
:1025800001208DF8030000A800F0ADF8012240F210
:1025900025511B48FFF7EAFE3420FFF769FF01BD14
:1025A00080B501211020FFF710FE01210420FFF764
:1025B0000CFE1820ADF8000003208DF8020010205A
:1025C0008DF8030000A90D4800F01EF80220ADF8B8
:1025D000000003208DF8020010208DF8030000A9F0
:1025E000084800F011F81821044800F071F80221A1
:1025F000044800F06DF801BD00E100E0001001406A
:10260000004C004000080140F0B4002200260024E5
:1026100000250023002791F803C01CF00F0C624630
:1026200091F803C05FEACC6C01D58B781A430B7824
:102630001B0621D00368002406E0CD78482D02D186
:102640000125A5400561641C082C14D20125A54074
:102650000E882E40AE42F6D1A5000F2616FA05F7D9
:10266000BB4312FA05F52B43CD78282DE5D1012582
:10267000A5404561E7E703600B88FF2B26DD436833
:10268000002420E0012514F10806B5400E882E40F4
:10269000AE4217D1A5000F2616FA05F7BB4312FA72
:1026A00005F52B43CD78282D04D1012514F108061A
:1026B000B5404561CD78482D04D1012514F10806B7
:1026C000B5400561641C082CDCD34360F0BC704746
:1026D00089B20161704789B2416170471A49084364
:1026E0001A490860704710B4002100220F23C478F3
:1026F000002C1DD01549096811F4E061D1F5E061A5
:10270000090AD1F10402CB404178914082781A4005
:10271000114309010E4A037899540121027812F0FD
:102720001F0291400B4A0078401142F8201009E046
:102730000121027812F01F029140074A00784011EF
:1027400042F8201010BC70470000FA050CED00E0C4
:1027500000E400E000E100E080E100E080B54F48E7
:10276000006850F001004D4908604D4800684D492F
:1027700008404B490860494800684B4908404749B0
:1027800008604648006830F48020444908604448A6
:10279000006830F4FE00424908605FF41F004349BE
:1027A000086000F005F85FF000604149086001BD75
:1027B00080B500F001F801BD82B00020019000203A
:1027C00000903648006850F480303449086033483F
:1027D000006810F4003000900198401C01900098AF
:1027E000002803D10198B0F5A06FF0D12B48006804
:1027F000800302D50120009001E0002000900098A5
:10280000012847D12B48006850F010002949086082
:10281000284800688008800026490860254800682C
:1028200050F00200234908601D4800681C490860F8
:102830001B4800681A4908601948006850F4806015
:10284000174908601648006830F47C101449086085
:102850001348006850F4E810114908600F480068F8
:1028600050F080700D4908600C4800688001FBD56D
:102870000B48006880088000094908600848006823
:1028800050F00200064908600548006810F00C008E
:102890000828F9D102B07047000000000010024083
:1028A000041002400000FFF8FFFFF6FE081002408F
:1028B00008ED00E000200240816807E0026811682E
:1028C000536889185B18C36008320260C26891427D
:1028D000F4D04A1C8260087870472DE9FF4D00F162
:1028E0000801009100270268520801EBC201019122
:1028F000B8460021029103910168490800EBC1012B
:10290000406800F0010501F10804400804EBC0062E
:1029100031E000A8FFF7D0FF4FFA80FA0AE00098F4
:1029200001680818009902904968081803900098F7
:1029300008300090029803998842F0D0401C029021
:1029400010F801BD47450CD1B44208BF00F01DF896
:10295000276805B14F44606800EB07080834474515
:10296000F2D007F801BBBAF1000F0AD51AF1010A3B
:10297000E8D14745CDD1B442CBD1304604B0BDE813
:10298000F08DBAF1010AD5D5F3E7012000F000B8C7
:1029900080B5C046C046024A11001820ABBEFBE716
:1029A0002600020000B595B0FFF76CFDFFF7F8FDBB
:1029B000FFF798FDFFF7D6FD10212448FFF78BFEA7
:1029C000962000F075F802212148FFF784FE96203A
:1029D00000F06EF808211D48FFF77DFE962000F0FC
:1029E00067F810211948FFF773FE962000F060F891
:1029F00002211748FFF76CFE962000F059F80821D5
:102A00001248FFF765FE962000F052F810210F489B
:102A1000FFF761FE02210E48FFF75DFE08210B481B
:102A2000FFF759FE00A80B494E22FEF70DFD00A945
:102A3000094800F07BF80122084900A800F08CF852
:102A400000A9054800F072F8FEE700BF0010014041
:102A5000000801408C2B0008004C0040A82C000806
:102A600040B2002808D50901214A40B210F00F00F9
:102A7000801800F8041C03E009011E4A40B281548A
:102A8000704780B5411EB1F1807F01D301200EE077
:102A9000401E194908600F215FF0FF30FFF7E0FF8B
:102AA000002016490860072015490860002002BD73
:102AB00010B50400134800684FF47A71B0FBF1F0D0
:102AC000FFF7DFFF104804800F4800880028FBD183
:102AD00000200B49086010BD0B480088002804D076
:102AE00009480088401E084908807047000000001F
:102AF00018ED00E000E400E014E000E018E000E081
:102B000010E000E0100100202001002038B5040092
:102B10000D0040212000FFF75AFC0028F9D0EDB24B
:102B2000290089B22000FFF74AFC31BD38B5040006
:102B30000D000D212000FFF7E9FF0A212000FFF71B
:102B4000E5FF04E029782000FFF7E0FF6D1C2878FE
:102B50000028F7D131BD00000CB41CB5044604A810
:102B600001900A46009401AB00A907487844183048
:102B7000FDF7DEFA009A0021117000285CBF009872
:102B8000001B16BC5DF80CFB4FE7FFFF2A2A2A2A20
:102B90002A2A2A2A2A2A2A2A2A2A2A2A2A2A2A2A95
:102BA0002A2A2A2A2A4B5449565420736569736D80
:102BB00069632073746174696F6E202A2A2A2A2A35
:102BC0002A2A2A2A2A2A2A2A2A2A2A2A2A2A2A2A65
:102BD0002A2A2A2A2A2A2A2A2A0000007047FEE7DF
:102BE000FEE7FEE7FEE770477047704780B5FFF7E6
:102BF00073FF01BD80B540F225510948FFF7F4FB92
:102C000000280CD040F225510548FFF71FFC04486E
:102C1000FFF7D9FB010089B20148FFF7D0FB01BDE6
:102C2000004C004010B5074979441831064C7C44EB
:102C3000163404E00A68081D511888470146A1426D
:102C4000F8D110BD080000003000000053E6FFFF7F
:102C50001000000014010020000000007FFCFFFFB6
:102C600002000000020000008401000021000000BA
:102C7000000000201401000000F00BF8002801D033
:102C8000FFF7D0FF0020C046C046FFF78BFE00F0E4
:102C900002F80120704700F001B8000007463846EE
:102CA000FFF776FEFBE700004368616E656C204E1F
:102CB000756D6265723A2025640000000148804706
:102CC000014800475D270008CD2C0008C046C046DB
:102CD000C046C046FFF7D0FFFFF780BFFFF77FBFBA
:102CE000FFF77EBFFFF77DBFFFF77CBFFFF77BBF1E
:102CF000FFF77ABFFFF779BFFFF778BFFFF7FEBF97
:102D0000FFF7FEBFFFF7FEBFFFF7FEBFFFF7FEBFF7
:102D1000FFF7FEBFFFF7FEBFFFF7FEBFFFF7FEBFE7
:102D2000FFF7FEBFFFF7FEBFFFF7FEBFFFF7FEBFD7
:102D3000FFF7FEBFFFF7FEBFFFF7FEBFFFF7FEBFC7
:102D4000FFF7FEBFFFF7FEBFFFF7FEBFFFF7FEBFB7
:102D5000FFF7FEBFFFF7FEBFFFF7FEBFFFF7FEBFA7
:102D6000FFF7FEBFFFF7FEBFFFF7FEBFFFF7FEBF97
:102D7000FFF7FEBFFFF7FEBFFFF7FEBFFFF7FEBF87
:102D8000FFF7FEBFFFF7FEBFFFF7FEBFFFF7FEBF77
:102D9000FFF7FEBFFFF7FEBFFFF7FEBFFFF7FEBF67
:102DA000FFF7FEBFFFF7FEBFFFF7FEBFFFF7FEBF57
:102DB000FFF7FEBFFFF7FEBFFFF7FEBFFFF7FEBF47
:102DC000FFF7FEBFFFF7FEBFFFF7FEBFFFF712BF23
:102DD000FFF7FEBFFFF7FEBFFFF7FEBFFFF7FEBF27
:102DE000FFF7FEBFFFF7FEBFFFF7FEBFE400F8FFEF
:102DF000DC00FAFF8100CD0013010203040102038D
:0D2E000004060708090204060800A24A049F
:0400000508002CCDF6
:00000001FF
