:020000040800F2
:100000007011002009550008894500088B4500083B
:100010008D4500088F45000891450008000000004C
:1000200000000000000000000000000093450008F0
:100030009545000800000000974500089945000814
:1000400055550008595500085D550008A1450008A0
:100050006555000869550008E54500087155000818
:1000600075550008795500087D5500088155000830
:1000700085550008895500088D55000891550008E0
:1000800095550008995500089D550008A155000890
:10009000A5550008A9550008AD550008B155000840
:1000A000B5550008B9550008BD550008C1550008F0
:1000B000C5550008C9550008CD550008D1550008A0
:1000C000D5550008D9550008DD550008E155000850
:1000D000E5550008E9550008ED550008F155000800
:1000E000F5550008F9550008FD55000801560008AF
:1000F00005560008095600080D560008115600085C
:1001000015560008195600081D560008EB46000851
:100110002F460008295600082D56000831560008C1
:1001200035560008395600083D560008415600086B
:100130002DE9F04F80460FF21860A5B017461D4616
:10014000D0E90023CDE91223002004910D900DF198
:10015000500A6FF0004900E0E7190020ADF80200F6
:1001600012AB4FF0FF3239460DF1020001F087F873
:100170000446012C04DA3878441EA441E043C40F3D
:10018000BDF8020025280CBFA4F1010BA346BBF16A
:10019000010F0EDB3E4616F8011B0498C047049081
:1001A000002800F0CF820D98401C0D90BBF1010B90
:1001B000F1D1BDF80200252807D100200790089052
:1001C00009900A900B900C9005E00028C4D10D987E
:1001D000BAE240F0010017F8011F2029F9D02329C5
:1001E0000DD02B2904D02D2906D030290AD00CE0BF
:1001F00040F0020080B2EEE740F00400FAE740F081
:100200000800F7E740F01000F4E72A290ED129682A
:10021000296051F8042B29600F92002A04D551421D
:1002200040F004000F9180B27F1C11E000210F917B
:1002300009E00F99494505D001EB810302EB430129
:1002400030390F917F1C3A78A2F130010A29F0D39E
:1002500039782E2903D04FF0FF310E911DE017F8A9
:10026000011F2A2907D1296829607F1C51F8042B16
:1002700029600E9211E000210E9109E00E99494586
:1002800005D001EB810302EB430130390E917F1C55
:100290003A78A2F130010A29F0D3ADF840000FF20C
:1002A000B840397801F00CF808B117F8010B8DF857
:1002B00042009DF84200682802BF39786829622010
:1002C00005D06C2804BF38786C2803D171208DF8D4
:1002D00042007F1C14A8069017F8014BB4F12500CA
:1002E0002AD01C3800F0CC80001F022840F2C880C1
:1002F000133800F0EE80093800F0C280801E00F054
:100300004F81401E00F02481401E022840F2B88038
:10031000001F00F01D81401F00F08380401E00F090
:10032000D880401E2DD0C01E0CD0801E00F0D18081
:10033000C01E00F0CE8056E10120079025208DF8E8
:1003400050005BE19DF842006C282868286014D0BA
:1003500050F8046B286005960E9C002C04D530469E
:1003600000F0BEFF044606E022460021304600F0C1
:10037000D3FF00B1841B089440E150F8042B28609F
:100380002AE13C242968296051F8040B29600021E6
:10039000CDE9020114A80590DDE90201069E11B91C
:1003A00008B90E9AB2B10206120FA0EB0212303257
:1003B000631ED2B21C463A2AA8BF273200099A55BA
:1003C00040EA0170090908BF002803D0059AA31963
:1003D0009A42E8D3A0190590C4F13C010E98089107
:1003E000814209DA401A0A904FF6EF71BDF84000D9
:1003F0000840ADF8400001E1002840F1FF809DF881
:10040000400000F01400102840F0F8800F98079A80
:10041000801A0A9A801A401A0128C0F2EF800A90C6
:10042000ECE09DF8420062281AD0682806D06A28BD
:100430000CD06C281CD0712808D019E028682860DE
:1004400050F8041B28600D980880D7E028682860C1
:1004500050F8042B28600D98C117C2E90001CDE0C7
:100460002868286050F8041B28600D980870C5E0C3
:100470002868286050F8041B28600D980860BDE0CB
:100480002868C01D20F007022A60D2E90001083266
:100490002A60CDE90201002903D5012007902D2013
:1004A0000CE0BDF84000810703D5012007902B2008
:1004B00004E0C00704D50120079020208DF85000EB
:1004C000079914A808180590214602A800F08CFB93
:1004D00094E09DF842206C2A0DD0712A18BF6A2A38
:1004E00009D12868C01D20F007032B60D3E9000163
:1004F00008332B6005E02968296051F8040B296056
:100500000021CDE90201682A08BF80B207D0622A23
:1005100008BFC0B203D0742A18BF7A2A02D10021C2
:10052000CDE902019DF84000000730D5DDE9020168
:10053000002908BF00282AD044F02000782826D1BE
:1005400030208DF850008AF80140022007901EE00C
:1005500029469DF8420000F003F9CDE90201002987
:1005600004DA0798411C07912D210EE0BDF84000E8
:10057000810704D50798411C07912B2105E0C0078E
:1005800005D50798411C0791202100F80A1007990A
:1005900014A808180590214602A800F0A1FA2DE041
:1005A0009DF842006C2809D0012007902868286037
:1005B00050F8041B28608DF850101FE001AA28682D
:1005C000286050F8041B2860ADF804100020ADF836
:1005D00006004FF0FF300E9002A9404600F0F7F8F9
:1005E00000280BD5AEE00120079025208DF85000A3
:1005F00024B10798411C079100F80A400F98079909
:10060000401A0A99401A0899401A0B99401A0999F8
:10061000401A0C99441A9DF84000400710D420203D
:100620008DF80000002609E0012300AA02A9404637
:1006300000F001FE002840F08580761CA642F3DB26
:10064000079E0DF1500B0AE01BF8011B0498C047F0
:100650000490002876D00D98401C0D90761E002E38
:10066000F2D130208DF800004FF0000B0A9E09E017
:10067000012300AA02A9404600F0DDFD002861D157
:100680000BF1010BB345F3DB089EDDF814B00AE073
:100690001BF8011B0498C0470490002852D00D9805
:1006A000401C0D90761E002EF2D130208DF80000F7
:1006B0004FF0000B0B9E09E0012300AA02A940465F
:1006C00000F0B9FD00283DD10BF1010BB345F3DB80
:1006D00005980899099E01EB000B09E01BF8011B26
:1006E0000498C047049068B30D98401C0D90761E86
:1006F000002EF3D130208DF800004FF0000B0C9E3F
:1007000008E0012300AA02A9404600F094FDC8B900
:100710000BF1010BB345F4DB9DF8400040077FF57A
:100720001CAD20208DF80000002600E0761CA642BB
:10073000BFF613AD012300AA02A9404600F07BFDDD
:100740000028F3D04FF0FF3025B0BDE8F08F000057
:100750000000000000000000686A6C747A4C000021
:10076000622826D068281DD06A2808D06C2827D097
:10077000712804D0742823D07A280CD020E008688F
:10078000C01D20F007000860D0E900230830086091
:100790001946104670470A680A6052F8040B0A604E
:1007A000002170470A680A6052F8040B0A6000B220
:1007B0000BE00A680A6052F8040B0A6040B204E0D9
:1007C0000A680A6052F8040B0A60C11770472DE9E5
:1007D000F44F0D4694B0D5F830B08046BBF1000F11
:1007E00048BF6FF0004B00F0C3FD696B40180190EB
:1007F0000FF67020D0E90023CDE9022395F83800E8
:10080000400702D40198412806D240200DF1100A79
:1008100001904FF0000909E000F0B0FD5FEA000A26
:10082000F7D14FF0FF3058E1ABEB040BBBF1010FF8
:10083000C0F2CD801498018802AA0DF1010000F0E9
:10084000F5FD0446002800F1D5801498008810B901
:10085000641E00F1CF80A345C0F2B9806869019998
:100860002218914280F0A180C5F834904042296A54
:10087000401AA969401A696A401AE969401AA96AC6
:10088000A0EB010995F83800400710D420208DF81E
:100890000000002609E0012300AA2946404600F096
:1008A000CAFC002840F0A680761C4E45F3DB6E693A
:1008B00057460BE017F8011BA868C047A86000283E
:1008C00000F09880E86A401CE862761E002EF1D1A4
:1008D00030208DF8000000272E6A09E0012300AACD
:1008E0002946404600F0A7FC002840F083807F1C8A
:1008F000B742F3DBAE69EF680AE017F8011BA8689E
:10090000C047A860002875D0E86A401CE862761EDF
:10091000002EF2D130208DF8000000276E6A08E02A
:10092000012300AA2946404600F085FC002861D139
:100930007F1CB742F4DBE868A969EE690F180AE08A
:1009400017F8011BA868C047A860002852D0E86AC1
:10095000401CE862761E002EF2D130208DF8000097
:100960000027AE6A08E0012300AA2946404600F0AD
:1009700062FC00283ED17F1CB742F4DB95F83800BA
:1009800040070ED520208DF80000002607E0012347
:1009900000AA2946404600F04EFC58BB761C4E4546
:1009A000F5DB4FF00009C5F81490224668690DF197
:1009B0000101504400F048FD6869201868611498EE
:1009C000801C1490801E008800287FF42DAF686B77
:1009D0006969401A296A401AA969401A696A401A65
:1009E000E969401AA96A471A95F83800400710D4F7
:1009F00000240CE04FF0FF3968E0A8682021C047D0
:100A0000A8600028F6D0E86A401CE862641CBC427A
:100A1000F3DB6B6952462946404600F00CFC002887
:100A2000E8D12C6A002609E0A8683021C047A860F8
:100A30000028DFD0E86A401CE862761CA642F3DB9F
:100A4000AB69EA682946404600F0F5FB0028D1D1A1
:100A50006C6A002609E0A8683021C047A860002819
:100A6000C8D0E86A401CE862761CA642F3DBE8685E
:100A7000A969EB690A182946404600F0DCFB00280A
:100A8000B8D1AC6A002609E0A8683021C047A86048
:100A90000028AFD0E86A401CE862761CA642F3DB6F
:100AA00095F8380040070DD5002409E0A8682021FA
:100AB000C047A86000289DD0E86A401CE862641C1A
:100AC000BC42F3DBC5F81490C5F8349004A8824505
:100AD0001CBF504600F0F4FC484615B0BDE8F08F4E
:100AE0002DE9FA4E05460A462F696F2A08BF0824E9
:100AF00005D041F02000782814BF0A241024D5E93D
:100B000000013C2681468A46642A18BF692A05D11D
:100B1000002903DAD9F100096AEB4A0ABAF1000F99
:100B200008BFB9F1000F0CD1286B50B9082C36D191
:100B300095F83800000732D530203B2687F83B0077
:100B40002DE0E31748465146224600F0F9FCA4FB8D
:100B50000023A9EB02023032A6F1010BD2B25E46AD
:100B60003A2A03DB9DF80030513B9A180BF8072016
:100B700081465FEA010A08BFB9F1000F03D0E868B7
:100B8000F1198842DDD3082C09D195F83800000707
:100B900005D5F05D302802D0761E3020F055C6F124
:100BA0003C00A861F119E960296B884208DA081A4B
:100BB00028624FF6EF71288F08402887BDE8F38E32
:100BC00000290ED595F8381001F01401102908D12C
:100BD000696B6A69891A2A6A891A081A0128A8BFE2
:100BE0002862BDE8F38E00002DE9F24F04468EB076
:100BF000D4E90001CDE9020104AF9DF8380040F0CE
:100C0000200BBBF1610F0AD0206B002848BF0620E3
:100C100004D408BFBBF1670F01D1012020636168D4
:100C2000C1F30A5040F2FF7290421CD1080304BF86
:100C30002068002809D10320A0619DF838006138A0
:100C40001A2836D30FF2306108E00320A0619DF826
:100C5000380061381A2829D30FF21461E0680322A2
:100C600000F0F2FBBEE1012816DA204600F0DFFCBE
:100C7000012811DB00250020BBF1610F20D1E168C4
:100C8000302201F8012B4A1CE2609DF83820612ACD
:100C90000CBF782258220FE0626840F2FE3161F307
:100CA0001E52451A62604FF0FF30E5E70FF2BC516B
:100CB000D4E70FF2C051D1E70A706169891C616104
:100CC00010B90026002584E1BBF1610F40F0978048
:100CD000206B00284CBF2126461CDDE90201D4E927
:100CE00000AB0022002336B200F0C2FC06F101087E
:100CF0003ABF8BF00040CDE902A0CDE902AB2D1F39
:100D00008DF810200DF1110700E0C71DB8F1010F9B
:100D100033DBDDE902010022002300F0C1FC2CD20C
:100D20001C2102A800F0D4FCDDE9020100F056FD10
:100D3000A8F107088146B8F1010F09DB00F07AFD40
:100D400002460B46DDE9020100F08CFDCDE902010F
:100D5000F81D072105E009F00F0200F8012D4FEA08
:100D60002919B9F1010F01DB491EF4D5491E5CBFF9
:100D7000002200F8012DF9D5C7E70DF11100391A4D
:100D80000DF11107B142B8BF0E4636B230002FD474
:100D9000884206DA04A9411849780829A8BF0F211A
:100DA00000DA002104AA821800E0761E12F8013948
:100DB000401E8B42F9D00F2904D104A941184A786A
:100DC000521C4A70002802D504AF761C2D1D36B285
:100DD000701E0DD4C1190A783032D2B23A2A03DB20
:100DE0009DF838303A3B9A1801F80129401EF2D597
:100DF000206B002840F1ED80701E2063E9E0DDE902
:100E000002010022002300F033FC3CBF81F00041CE
:100E1000CDE902012DB247F2975068434B49DFF804
:100E2000309190FBF1F52DB2C5F1070A9046BAF169
:100E3000010F1CDBDDE902675FEACA7007D5424695
:100E40004B463046394600F0CDFD06460F464FEA88
:100E50006A0A4046494642464B4600F0C3FD80467A
:100E60008946BAF1000FE7D1CDE9026724E0CAF163
:100E7000000A0026374F14E05FEACA7007D54246E1
:100E80004B463046394600F0ADFD06460F464FEA68
:100E90006A0A4046494642464B4600F0A3FD80465A
:100EA0008946BAF1000FE7D1DDE9020132463B463F
:100EB00000F06AFECDE90201BBF1660F0CBF05F13F
:100EC0000A000620216B4618142EA8BF13263020D6
:100ED0008DF810000DF11107DFF87C90012E3DDB3D
:100EE000DDE9020100F090FC07F1080104220A2369
:100EF000B0FBF3F303EB8307A0EB4700303001F8BE
:100F0000010D0A20B3FBF0F000EB8007A3EB4703D1
:100F1000303301F8013D521EE9D1083E01F10807C6
:100F2000012EDBDBDDE9020100F06EFC00F08CFC41
:100F300002460B46DDE9020100F094FC00224B461C
:100F400000F050FDCDE90201CAE700BFA086010014
:100F5000000024400000F03F84D797410DF11100BC
:100F6000381A0DF1110702E0401E6D1E7F1C397802
:100F70003029F9D0BBF1660F02D12DB2691C04E013
:100F8000BBF1650F0CBF01210021226B8E1836B218
:100F9000B042B8BF064636B231001AD4814204DAF4
:100FA000C85D3528A8BF392000DA3020CA19521E82
:100FB00000E0761E12F80139491E8342F9D0392823
:100FC00002D1C85D401CC855002902D57F1E761C81
:100FD0006D1C2DB29DF83810009533B23A4620466C
:100FE00000F003F80FB0BDE8F08F2DE9F04786B0B0
:100FF00006468A4690461D4600F007FF406A376B5A
:1010000090F80090012D02DA01250FF270284AF0C5
:101010002000BDF93840662808BF641C12D067283C
:1010200076D114F1040F79DBBC4277DA96F83800F8
:10103000641C000702D4BD42B8BF2F4624B23F1B38
:1010400048BF0027F068B16924B2012C21DA3023AF
:101050004A1C0B54012F03DA96F83810090702D501
:1010600002F80090521CB261E742B8BF7C4224B241
:101070006142E7197162AF42B8BF3D462DB2F561DA
:101080002A46B3694146181800F0DEF9781BB062B1
:10109000BAE00818A54216DA2A46414600F0D4F90B
:1010A000B1696918B161601B7062012F03DA96F8AB
:1010B0003800000705D5F06801F80090F069401C81
:1010C000F061B762A0E02246414600F0BDF9B06988
:1010D00020182D1B012F03DA96F83810090703D5C5
:1010E000F16800F80190401C2DB2B061AF42B8BF6A
:1010F0003D46F068B3692DB22A4604EB0801181882
:1011000000F0A2F9B0692818B061781B70627BE02A
:10111000BAF1610F14D14FF0700A16E0BD4204DA43
:1011200096F83810090758BF2F467F1E48BF002782
:10113000BAF1670F14BF4FF0450A4FF0650A04E09B
:10114000BAF1410F08BF4FF0500AB169F06818F8C2
:10115000013B0B544A1C012F05DA96F83810090799
:1011600058BFB26115D502F80090531CB361012F2E
:101170000FDB6D1E2DB2AF42B8BF3D462DB22A46E1
:101180004146181800F060F9B0692818B061781B62
:101190007062F068B16901EB0008200008F801AB4B
:1011A00003D42B2008F8010B03E02D2108F8011BC4
:1011B0006442002502AF08E00A2200A800F03EFECB
:1011C000019807F8010B6D1C009C21B20129F3DA8C
:1011D000022D06DA4AF02000652804BF302008F806
:1011E000010B4DB9302008F8010B07E06D1E02A875
:1011F000285C303008F8010B012DF7DAF068B1698E
:101200000818A8EB0000F06196F8380000F0140010
:1012100010280DD17069B1690818716A0818F16950
:101220000818B16A0818716B8842BCBF081A30628E
:1012300006B0BDE8F087F8B504460D4616461F46D1
:10124000002004E0E86A401CE8627F1E002047B1ED
:1012500016F8011BA868A047A8600028F2D14FF03B
:10126000FF30F2BD00000000000000006E616E0063
:101270004E414E00696E6600494E46003000F8B59A
:1012800004460D4616461F4600F0E9FD3B46324631
:101290002946204601B0BDE8F04000F0F6BD50F808
:1012A000041B61B150F8042BD30744BFA9F101031B
:1012B0009A18002342F8043B091FFAD1EFE7704760
:1012C0000278C9B28A421AB11CBF10F8012FF9E79F
:1012D00018BF002070470268531C036011707047EC
:1012E00000F10103810704D010F8011B89B18107C7
:1012F000FAD10268B2F10131914311F0803F04BF8D
:1013000050F8042FF6E710F8011B11B110F8011B7B
:10131000FBE7C01A70470000C9B2830706D0521E0F
:1013200022D310F8013B9942F7D11FE0083A13D3BA
:1013300002F1040241EA012141EA014150F8043B73
:10134000121F21BF4B40A3F1013C2CEA030C1CF0FF
:10135000803FF3D0C9B2001F083210F8013B521E83
:1013600028BF91EA030FF8D818BF0120401E70472C
:1013700080B500F074FD012002BD000070B5054687
:1013800005F10F00C408E400C046C046A54232D2B1
:10139000082C04D2082402E0083000F091F822481A
:1013A000026811000CD1011D0A6802B31368A34240
:1013B00038BF111DF8D310E01D68A5420DD2191DCC
:1013C0000B68002BF8D11268011D00E0191D0B6895
:1013D00093420CD01D68A542F8D361B10D682A680C
:1013E000A2F10803A3420AD26A680A600FE000F083
:1013F0006FFD0028D0D1C046C046002070BD6319E3
:101400000B60121B6E685E600B681A602C600968C6
:1014100000291DBF4A68002A091D00210160C0463D
:10142000C04605F1080070BD5C01002070B504469F
:101430000D46164600F013FD324629462046BDE80B
:10144000704000F015BD000062B38B0708D0521E3B
:1014500011F8013B00F8013B00F024808B07F6D126
:10146000830740F0208000BF103A07D330B4B1E8C2
:101470003810103AA0E83810F9D230BC530724BF16
:10148000B1E80810A0E8081044BF51F8043B40F848
:10149000043BD20724BF31F8022B20F8022B44BFB3
:1014A0000B7803707047083A07D3B1E80810083A80
:1014B00040F8043B40F804CBF7D25307E4E70000C0
:1014C00000B9704738B5A0F108042068082833D364
:1014D00010F0070F30D1C046C0461848416809B126
:1014E0008C4203D26160446017E019464B680BB12F
:1014F000A342FAD30B685D18AC421BD3A54204D1BA
:101500002268D2180A600C4607E04A681AB12368BC
:101510001B199A420ED362604C60616851B1226817
:1015200013198B4206D100230360086880182060DD
:1015300048686060C046C04631BD00005C010020C4
:101540001B4213D1094236D12AB18446B0FBF2F0D6
:1015500002FB10C2704700F0D1BCFCD30022002374
:1015600070470B000200002100207047904271EB91
:10157000030CF6D370B5B1FA81F4B3FA83F52C1BE2
:10158000A340C4F1200532FA05F63343A2405FF0D0
:101590000046E64002E05B085FEA3202841A71EB23
:1015A000030524BF204629467641F4D302000B00F0
:1015B0003000002170BD012ACFD970B5140C20D0A5
:1015C000B1FA81F4B2FA82F5C4F120046419B4F1DD
:1015D0002006D6D3B2405FF00044F440002502E07C
:1015E00052085FEA3303C61A71EB020E24BF30467D
:1015F000714664416D41F3D302000B0020002900C5
:1016000070BD0C46B1FBF2F102FB11452D0445EA19
:101610001045B5FBF2F402FB145580B240EA0545D3
:10162000B5FBF2F002FB105240EA044070BD30B44A
:10163000436803F0004201211B031B0B436004BFFE
:101640000368002B08D10DE00368DD0F45EA440470
:1016500044605B000360491E4468E302F4D5230341
:101660001B0B436043681A434260084630BC704716
:101670004FF4001C1CEB410F94BF1CEB430F09E01F
:1016800041EA030C50EA4C0C52EA0C0C03D299428A
:1016900008BF9042704714BF8B42824270470000DF
:1016A0004FF4001C1CEB410F94BF1CEB430F09E0EF
:1016B00041EA030C50EA4C0C52EA0C0C03D28B4268
:1016C00008BF8242704714BF9942904270470000A1
:1016D00070B504460D466068C0F30A5040F2FF71D1
:1016E000884207D16068000304BF2068002817D033
:1016F000022070BD20B92046FFF799FF012867DA64
:10170000012D0FDB40F2FF71091A8D420AD3606888
:10171000002847BF00202F4900202F49C4E90001BD
:10172000012070BD4142A942616806DA6FF31E5183
:10173000401941EA0050606041E0401E63680122A8
:10174000451962F31F5305F1350001F00041636054
:10175000352803D361600020206070BD002215F1A0
:101760001F0F04DA22682360002020356060684281
:1017700013D0521E25689241C0F12003D2439D40F0
:1017800045EAD27225686668C54006FA03F32B4322
:101790002360636823FA00F060606068084360605B
:1017A000B2F1004F03D80DD12078C0070AD52068C8
:1017B000401C2060206828B96068401C60604FF0C1
:1017C000FF3070BD6068884204BF20680028F6D1F1
:1017D000002070BD0000F0FF0000F07FF446400DD7
:1017E00040EAC120490006D200F014F8004248BF88
:1017F0006FF00040604700F00DF84FF00041884264
:101800008CBF084640426047400D40EAC120490075
:1018100080F00D8040F00040490DA1F58061491C29
:1018200005D4D1F11F0154BFC840C01770474FF015
:1018300000007047010040F10980F446404200F08A
:1018400005F851F000416047010000BF09D0B0FA2F
:1018500080F18840C91CC1F58461090501EBD021E4
:101860004005704770B44FF0004591EA030F44BF44
:101870006B4000F045BB00BF841A71EB030604D235
:101880006E40001BB141121973414FF4001C1CEB58
:10189000410F34BF7CEB430684E00C0DA4EB1356E0
:1018A000362E7DDC012E43DC45EAC32343EA525346
:1018B00012BFD20292025B08240545EAC12141EA27
:1018C0005051D2EBC020994125D407D1B0FA80F60F
:1018D00010FA06F164D00020203608E0B1FA81F653
:1018E000B140C6F1200220FA02F21143B0404FEAA3
:1018F000F474B4EB465434F001064FEA74040AD889
:10190000D6F50016760D04F00044F04061FA06F2B8
:101910005040F1404840C00A40EA415021F00041A7
:1019200028BF5FEA500550F1000044EBD12137E0B9
:1019300045EAC323DB0A45EAC121C90AB6F12005FD
:101940000EDD42EA0242120CC5F1200603FA06F649
:10195000EB4042EA06056D42984161F100010DE05D
:1019600062FA06F5F240554063FA06FC82EA0C0280
:10197000F3405A406D42904161EB030111F4801F26
:1019800005D1641E620502D06D004041494121F439
:101990008011430875F1004350F1000041EB045100
:1019A00070BC70471CEB410F15D223F0004352EA84
:1019B00043060BD04FEA4C0CBCEB410F04D80C0D86
:1019C000661E342EB7DDEBE7801A994150EA4106D6
:1019D00008BF0021E4E708BF1CEB430F28BF6FF0EE
:1019E0000001DDE7B0B581EA030C0CF0004C40F2D9
:1019F000FF7515EA11541DBF15EA1357AC42AF42EB
:101A000039E0E41923EA455343F48013C90241F055
:101A1000004141EA505EC7021100A7FB0202002804
:101A20004FF00000EEFB01204FF00001E3FB072127
:101A300018BF42F00102401800214941E3FB0E01AA
:101A4000A4F580640F0302D252004041494154F191
:101A500001046CDD470872F1004250F1000051EBC7
:101A60000451A1F580115CBF41EA0C01B0BD4CEA04
:101A700005510020B0BD05EA1357AC4214BFAF4278
:101A800041E050EA410E1CBF52EA430E02E06146BB
:101A90000020B0BD24423C441BD15FEA070EF6D0C3
:101AA000090302BF01460020AEF1140EB1FA81F71E
:101AB000AEEB070401FA07FE0C37C7F1200100FA6C
:101AC00007F7C8404EEA000E23EA455343F480135B
:101AD000A2E733F00043B3FA83F704BFB2FA82FE01
:101AE00077440B3FE41BB7F1200E2FBF02FA0EF331
:101AF000BB40C7F1200E22FA0EFE38BF43EA0E03A8
:101B0000BA40641C82E750EA410E14BF52EA430E09
:101B10006FF000014FF4001717EB430F8ABF19460F
:101B200017EB410FB5E74CEA05510020B0BDD4F1E9
:101B30000104B4F120070FDAC4F12007520828BFCE
:101B400042F0010210FA07F501FA07F7E1BF2A4354
:101B5000E0403843E1400FE0352C98DCC7F1200429
:101B600052EA400220FA07F218BF42F0010231FAAD
:101B700007F0A1400A43002172F1004250F1000039
:101B800051EB0C01B0BD0000F0B540F2FF7581EAE9
:101B9000030C0CF0004C15EA11541DBF15EA135745
:101BA000AC42AF42E5E0BC41C1F31301C3F3130300
:101BB000801A994143F4801304D2641E40004941C5
:101BC00080185941C90241EA5051B1FBF3F603FBB9
:101BD0001611A2FB0675D7EBC020A94102D2761ED2
:101BE00080185941C90241EA5051B1FBF3FE03FB91
:101BF0001E11A2FB0E75D7EBC020A94103D2AEF196
:101C0000010E80185941890241EA9051760546EA51
:101C10008E2EB1FBF3F603FB1611A2FB0675D7EB74
:101C20008020A94102D2761E80185941C90241EA9A
:101C300050514EEA060EB1FBF3F603FB1611A2FB60
:101C40000675D7EBC020A94102D2761E80185941F3
:101C5000C90241EA5051B1FBF3F703FB1711A2FB94
:101C60000735D3EBC020A94167F100070CBF004244
:101C700047F0010766F3D5274FEA1E31B80814F57F
:101C8000806412DDBD0775F1004250EB0E5051EB40
:101C9000045111F5801F5CBF41EA0C01F0BD4CF00E
:101CA0007F6141F0E0410020F0BDBD076D0840EAD2
:101CB0000E5041F48011D4F10104B4F120060ADA87
:101CC000C4F120060200E04001FA06F3E1401843A7
:101CD000B24015430EE0342C13DCC6F1200445EA73
:101CE00040056D0820FA06F2154321FA06F0A140DE
:101CF0000D43002175F1004250F1000051EB0C0141
:101D0000F0BD00205FEA0C01F0BDCFB992185B4135
:101D1000B3FA83F704BFB2FA82F6BF190B3FB7F1EB
:101D200020062FBF02FA06F3BB40C7F1200622FAB5
:101D300006F638BF3343BA401CB1E419641E33E7DA
:101D40007F4231F00041B1FA81F404BFB0FA80F66D
:101D5000A4190B3CB4F120062FBF00FA06F1A140F4
:101D6000C4F1200620FA06F638BF3143A0403C1BE0
:101D70001AE7AC421ABF05EA1357AF4212E050EA25
:101D800041061CBF52EA4306BFE750EA410730460E
:101D900061461CBF41EA0551F0BD52EA430C08BF41
:101DA000C143F0BD00204FF4001616EB410F98BF61
:101DB00016EB430F08BF16EB410F24BFC14305E0EC
:101DC00016EB430F0CBF61464CEA0551F0BD000015
:101DD00080B5134800F0FEF80FF248010160416041
:101DE0008160C1600161416181610FF23C02426228
:101DF0008162C162016341630FF2300282630FF2BC
:101E00003402C2630164416401BD10B5044800F0AE
:101E1000E1F80446206808B9FFF7DAFF204610BD54
:101E200000000020000000002E00000066616C73BE
:101E300065000000747275650000000091FBF2F30C
:101E400003FB1211C0E900317047000010B50446D1
:101E5000DFF8180000F0BEF850F8240010BD80B57F
:101E6000DFF8080000F0B6F8806902BD900000209D
:101E700030B430B90FF24800D0E90045C2E900455E
:101E80001BE00170012030BC704730B431B90FF253
:101E90003800D0E90045C3E900450EE01AB930BC6E
:101EA0006FF00100704708B10A7802800978481E77
:101EB000804130BCC043C00F7047002030BC704729
:101EC0000000000000000000000000000000000012
:101ED0000749086808B1002070470648C008C000DC
:101EE00008600549C908C900091A0160704700BFA8
:101EF0006C01002077110020702100207047000045
:101F0000841A71EB030603D2001BB141121973410D
:101F10004FF4001C1CEB410F34BF7CEB430443E047
:101F20000C0DA4EB1356352E50DC45EAC323DB0A17
:101F300045EAC121C912B6F120050DDD63FA05F6A7
:101F4000EB4086EA0305124218BF45F00105C018B0
:101F500051F100010CD213E062FA06F5F24055404F
:101F6000F3415A40B340F3405A408018594107D3D7
:101F700049085FEA30005FEA350528BF45F00105F2
:101F800001F58011420875F1004250F1000041EB6B
:101F9000045170BC4FF4001C1CEB410F38BF70475C
:101FA0000020090D090570471CEB410F10D252EAC1
:101FB00043060BD0BCEB410F05D80C0DAB43661E9E
:101FC000342EB5DD02E0AB438018594170BC704738
:101FD00070BC70477047000080B5C0B2002806D0C2
:101FE00002281BD00FD3042829D022D332E00421A9
:101FF000DFF8640700F02DFC0321DFF85C0700F038
:102000002BFC002002BD0521DFF84C0700F021FC6D
:102010000221DFF8440700F01FFCF2E70621DFF899
:10202000380700F016FC0121DFF82C0700F014FC43
:10203000E7E70721DFF8200700F00BFCE1E70121CB
:10204000DFF8140700F005FC0621DFF80C0700F0AC
:1020500003FCD6E70120D5E780B5C0B200280ED03A
:1020600002282DD019D3042850D03CD3062873D091
:102070005FD3082800F09680C0F08180A5E04FF47F
:102080000071DFF8D40600F0E7FB4FF4F851DFF8F9
:10209000CC0600F0E1FB002002BD4FF40071DFF838
:1020A000BC0600F0D6FB4FF4E851DFF8B00600F0B4
:1020B000D3FB4FF40071DFF8A00600F0CDFBEAE798
:1020C0004FF48051DFF8940600F0C3FB4FF47061C9
:1020D000DFF8880600F0C0FB4FF40071DFF87806E7
:1020E00000F0BAFBD7E74FF40071DFF86C0600F0A0
:1020F000B0FB4FF40071DFF8640600F0AAFB4FF468
:10210000E851DFF8580600F0A7FBC4E74FF4A051F0
:10211000DFF8480600F09DFB4FF43061DFF83C0625
:1021200000F09AFB4FF40071DFF82C0600F094FBEE
:10213000B1E74FF44071DFF8240600F08AFB4FF45A
:10214000E051DFF8180600F087FB4FF40071DFF86C
:10215000080600F081FB9EE74FF4C051DFF8FC0554
:1021600000F077FB4FF4E061DFF8F00500F074FB5E
:102170004FF40071DFF8E00500F06EFB8BE74FF4E1
:102180000071DFF8D40500F064FB4FF44071DFF814
:10219000CC0500F05EFB4FF4E051DFF8C00500F025
:1021A0005BFB78E74FF4E051DFF8B00500F051FB3E
:1021B0004FF44071DFF8A40500F04EFB4FF40071BE
:1021C000DFF8940500F048FB65E7012064E710B5EF
:1021D00004008021DFF8800500F03EFB4FF48071A1
:1021E000DFF8740500F035FB4021DFF86C0500F0E6
:1021F00030FBE4B2002C12D0022C2FD027D3042CB9
:102200003AD032D3062C45D03DD3082C50D048D3F9
:102210000A2C5BD053D30C2C66D05ED36BE041F616
:10222000FF71DFF83C0500F087FB8021DFF828050F
:1022300000F00FFB4FF48071DFF81C0500F009FB84
:102240004021DFF8140500F004FB002010BD4FF41E
:10225000C051DFF80C0500F06FFBE6E74FF4A0512A
:10226000DFF8FC0400F068FBDFE74FF49051DFF883
:10227000F00400F061FBD8E74FF48851DFF8E00488
:1022800000F05AFBD1E74FF48451DFF8D40400F09A
:1022900053FBCAE74FF48251DFF8C40400F04CFB53
:1022A000C3E74FF48151DFF8B80400F045FBBCE709
:1022B00041F21001DFF8A80400F03EFBB5E741F25F
:1022C0000801DFF89C0400F037FBAEE741F204019F
:1022D000DFF88C0400F030FBA7E741F20201DFF8E1
:1022E000800400F029FBA0E741F20101DFF870044F
:1022F00000F022FB99E78021DFF85C0400F0A9FAE6
:102300004FF48071DFF8500400F0A3FA4021DFF8A9
:10231000480400F09EFA012098E710B588B0040048
:10232000E4B2142C01DB01206CE0DFF8380400F08B
:10233000D3FB01215FF4002000F0C0FE00A800F0F4
:1023400051FD0020ADF8020003A800F057FD602009
:10235000ADF80C000120ADF80E000020ADF814001F
:10236000E4B2002C2CD0022C60D04DD3042C7DD0B4
:102370006DD3062C00F09A80C0F08780082C00F006
:10238000B480C0F0A3800A2C00F0CF80C0F0BE80E3
:102390000C2C00F0E880C0F0D7800E2C00F00181FA
:1023A000C0F0F080102C00F01A81C0F00981122CCE
:1023B00000F03381C0F02281132C00F03D814AE10E
:1023C000DFF8A4030068DFF8A413B0FBF1F0401EAF
:1023D000ADF8000040F2E730ADF8040040F2F31031
:1023E000ADF8120000A9DFF87C0300F064FC03A93B
:1023F000DFF8700300F0A9FC0121DFF8680300F0AA
:102400000EFD002008B010BDDFF85C030068DFF8A7
:102410005C13B0FBF1F0401EADF8000040F2F31089
:10242000ADF80400F920ADF81200DBE7CE480068F3
:10243000CE49B0FBF1F03138ADF8000040F2E730A2
:10244000ADF8040040F2F310ADF81200CAE7C64838
:102450000068C649B0FBF1F0401EADF80000F9205D
:10246000ADF804007C20ADF81200BBE7BE48006860
:10247000BE49B0FBF1F0401EADF80000C720ADF83A
:1024800004006320ADF81200ACE7B7480068B74914
:10249000B0FBF1F03D38ADF8000040F2E730ADF8A8
:1024A000040040F2F310ADF812009BE7AE4800685C
:1024B000AE49B0FBF1F02538ADF8000040F21D1038
:1024C000ADF804008E20ADF812008BE7A648006836
:1024D000A649B0FBF1F02538ADF80000F920ADF8C1
:1024E00004007C20ADF812007CE79F4800689F49FB
:1024F000B0FBF1F04138ADF8000040F2E730ADF844
:10250000040040F2F310ADF812006BE79648006843
:102510009649B0FBF1F02538ADF800009920ADF8F0
:1025200004004C20ADF812005CE78F4800688F492A
:10253000B0FBF1F02138ADF800006320ADF80400E5
:102540003120ADF812004DE7874800688749B0FB9D
:10255000F1F02538ADF800005620ADF804002A202F
:10256000ADF812003EE7804800688049B0FBF1F00A
:102570002538ADF800003B20ADF804001D20ADF873
:1025800012002FE7784800687849B0FBF1F03D3839
:10259000ADF800008B20ADF804004520ADF8120026
:1025A00020E7714800687149B0FBF1F03D38ADF8A3
:1025B00000007120ADF804003820ADF8120011E7DA
:1025C000694800686949B0FBF1F04338ADF8000094
:1025D000BD20ADF804005E20ADF8120002E76248AD
:1025E00000686249B0FBF1F04338ADF80000A32069
:1025F000ADF804005120ADF81200F3E65A48006827
:102600005A49B0FBF1F04338ADF800008F20ADF827
:1026100004004720ADF81200E4E65348006853492F
:10262000B0FBF1F04338ADF800008120ADF80400B4
:102630004020ADF81200D5E64B4800684B49B0FB8E
:10264000F1F04338ADF800007320ADF804003920F4
:10265000ADF81200C6E60120D4E6C0B2002809D0C9
:10266000022816D00ED3042823D01AD3062830D03F
:1026700027D336E04020C88000200872002048722E
:10268000002070478020C880012008720120487215
:10269000F6E74FF48070C880032008720320487268
:1026A000EEE74FF40070C8800720087207204872D8
:1026B000E6E74FF48060C8800F2008720F20487250
:1026C000DEE74FF40060C8801F2008721F204872A8
:1026D000D6E74FF48050C8803F2008723F204872F0
:1026E000CEE70120CDE710B504000220FFF774FC0F
:1026F00001280ED00020FFF7AFFC012809D00020F0
:10270000FFF765FD012804D00020FFF706FE012831
:1027100001D101200EE00220207100206070002015
:10272000A0700020E0700020A072002060710020E6
:102730002072002010BD10B54FF480710C4800F0DD
:102740007DF804004FF48051094800F077F840000C
:102750002043C0B210BD000000100140000801403D
:1027600000380040004C01402001002040420F0092
:10277000000C0140F0B400220026002400250023B4
:10278000002791F803C01CF00F0C624691F803C0BB
:102790005FEACC6C01D58B781A430B781B0621D0ED
:1027A0000368002406E0CD78482D02D10125A5401C
:1027B0000561641C082C14D20125A5400E882E400A
:1027C000AE42F6D1A5000F2616FA05F7BB4312FA62
:1027D00005F52B43CD78282DE5D10125A540456190
:1027E000E7E703600B88FF2B26DD4368002420E029
:1027F000012514F10806B5400E882E40AE4217D1CF
:10280000A5000F2616FA05F7BB4312FA05F52B4370
:10281000CD78282D04D1012514F10806B540456175
:10282000CD78482D04D1012514F10806B540056185
:10283000641C082CDCD34360F0BC70470022806825
:1028400089B2084201D0012200E000221000C0B28B
:10285000704789B20161704789B24161704770B4B5
:102860000022002400230025002802D52F4A1368E7
:1028700001E02F4A1368C0F3034582B210F44014FC
:10288000B4F5401F08D133F07063294C246834F04C
:102890007064274D2C600FE0C40205D50324AC40C2
:1028A000A34353F0706307E0440DE4B2240112FA2D
:1028B00004F4A34353F07063C9B2002905D0410D5D
:1028C000C9B2090112FA01F10B43002802D51748D9
:1028D000036001E01648036070BC704710B400222A
:1028E0000F2311F00304E4B2A400A3401A00114B1B
:1028F000C9B28C1053F8243033EA02020D4BC9B22E
:102900008C1043F824200B4AC9B28B1052F82320B4
:10291000C0B211F00303DBB29B0098401043054A9C
:10292000C9B2891042F8210010BC70471C00014058
:10293000040001400800014038B504000D0080216A
:10294000200000F0B6FC0128F9D0290089B220004F
:1029500000F084FC31BD38B504000D00802120005A
:1029600000F0A7FC0128F9D00021200000F08AFC2B
:10297000EDB2290089B2200000F070FC8021200017
:1029800000F097FC0128F9D04FF40061200000F01E
:1029900079FC31BD10B504000121200000F089FC54
:1029A0000028F9D0200000F05BFC10BD10B5002419
:1029B000C0B204002402C9B20C438021444800F094
:1029C00078FC0128F9D0210089B2414800F046FC8A
:1029D00020214048FFF73DFF10BD70B504000D00F9
:1029E000002260213A4800F023FC002624880020C1
:1029F000C0B20A285FDAC0B201280FD05AD3032828
:102A00001BD015D3052827D021D3072833D02DD3A9
:102A100009283FD039D30A2847D04BE02000C0B264
:102A2000FFF7DAFA012801D1012600E02C7142E01B
:102A300029790220FFF7BAFF3DE02000C0B2FFF77E
:102A40000BFB012801D1012600E06C7033E06978AE
:102A50000420FFF7ABFF2EE02000C0B2FFF75DFCC3
:102A6000012801D1012600E0EC7024E0E97806207D
:102A7000FFF79CFF1FE02000C0B2FFF7A8FB012872
:102A800001D1012600E0AC7015E0A9780820FFF71D
:102A90008DFF10E029002000C0B2FFF7DEFD012805
:102AA00001D1012600E06C7105E069790A20FFF789
:102AB0007DFF00E00126F6B2012E03D102210020A5
:102AC000FFF774FF01226021014800F0B1FB70BDE7
:102AD000003C00400010014080B5DFF860138842E0
:102AE0000AD101214FF4006000F008FB00214FF4EF
:102AF000006000F003FBDDE0B0F1804F08D1012160
:102B0000012000F00BFB0021012000F007FBD1E0C9
:102B1000DFF82C13884208D10121022000F0FEFAD0
:102B20000021022000F0FAFAC4E0DFF8181388420E
:102B300008D10121042000F0F1FA0021042000F066
:102B4000EDFAB7E0DFF80013884208D10121082030
:102B500000F0E4FA0021082000F0E0FAAAE0DFF833
:102B6000EC12884208D10121102000F0D7FA002190
:102B7000102000F0D3FA9DE0DFF8D412884208D18B
:102B80000121202000F0CAFA0021202000F0C6FA1E
:102B900090E0DFF8C01288420AD101214FF40050C2
:102BA00000F0ACFA00214FF4005000F0A7FA81E0E9
:102BB000DFF8A41288420AD101215FF4002000F05E
:102BC0009DFA00215FF4002000F098FA72E0DFF82F
:102BD0008C1288420AD101215FF4801000F08EFA35
:102BE00000215FF4801000F089FA63E0DFF87012D2
:102BF00088420AD101215FF4001000F07FFA002121
:102C00005FF4001000F07AFA54E0DFF858128842BE
:102C100008D10121402000F081FA0021402000F07D
:102C20007DFA47E0DFF84012884208D10121802078
:102C300000F074FA0021802000F070FA3AE0DFF82A
:102C40002C1288420AD101214FF4807000F066FAFC
:102C500000214FF4807000F061FA2BE0DFF81012D1
:102C600088420AD101215FF4803000F047FA002148
:102C70005FF4803000F042FA1CE0DFF8F81188427F
:102C80000AD101215FF4003000F038FA00215FF42E
:102C9000003000F033FA0DE0DFF8DC11884209D192
:102CA00001215FF4802000F029FA00215FF48020E8
:102CB00000F024FA01BD002203881A00DFF87C31FD
:102CC000984212D0DFF88C3198420ED0B0F1804F8C
:102CD0000BD0DFF86C31984207D0DFF868319842AA
:102CE00003D0DFF86431984204D14FF68F731A4055
:102CF0004B881A43DFF85431984208D0DFF850313E
:102D0000984204D04FF6FF431A40CB881A43028002
:102D10008A8882850A880285DFF8202190420FD0B8
:102D2000DFF8302190420BD0DFF84421904207D0E9
:102D3000DFF84021904203D0DFF83C21904201D1DE
:102D4000097A018601218182704770B40023002432
:102D50000022058C4FF6FE7635400584058C2C004C
:102D600085882A00058B2B004FF68F752B404FF678
:102D7000FC752B400D882B434FF6FD752C400D89BB
:102D80002C434D882C43DFF8B450A8420FD0DFF815
:102D9000C450A8420BD0DFF8D850A84207D0DFF8C3
:102DA000D450A84203D0DFF8D050A84213D14FF638
:102DB000F7752C404D892C434FF6FB752C408D88C0
:102DC0002C434FF6FF652A404FF6FF552A408D8968
:102DD0002A43CD892A4382800383C988818604845B
:102DE00070BC70474FF6FF71818000210180002187
:102DF000C1800021418000210172704700210180C3
:102E000000214180002181800021C18000210181B9
:102E100000214181002181810021C1817047C9B217
:102E2000002904D0018851F00101018004E00188EB
:102E30004FF6FE721140018070470000002C0140E7
:102E40000004004000080040000C0040001000405A
:102E50000014004000340140004C0140005001408B
:102E60000054014000180040001C004000200040B9
:102E7000004001400044014000480140DFF80803E1
:102E8000006850F00100DFF800130860DFF8FC0272
:102E90000068DFF8FC120840DFF8F0120860DFF885
:102EA000E8020068DFF8EC120840DFF8DC12086086
:102EB000DFF8D402006830F48020DFF8CC1208601C
:102EC000DFF8C802006830F4FE00DFF8C0120860C6
:102ED0005FF41F00DFF8C01208607047DFF8A81227
:102EE000096831F48031DFF8A0221160DFF8981210
:102EF000096831F48021DFF890221160B0F5803F3D
:102F000003D0B0F5802F09D011E0DFF87C02006813
:102F100050F48030DFF87012086008E0DFF86802D3
:102F2000006850F4A020DFF860120860FFE77047E7
:102F30000022964B1B681A0032F47C1208430243AD
:102F4000924802607047C0B29449086070470021FF
:102F50008E4A126811008908890001438B4801607C
:102F600070478A48006810F00C0070470021874ABB
:102F70001268110031F0F00101438448016070478C
:102F80000021824A1268110031F4E06101437F4858
:102F90000160704700217D4A1268110031F46051D0
:102FA00051EAC0017948016070470021774A1268F0
:102FB000110031F440410143744801607047002121
:102FC000774A11700021764A1170C0B2012802D0F0
:102FD000042804D007E001207149087003E00520AF
:102FE0006F490870FFE770476D49096808436C49ED
:102FF00008607047C0B26B490860704730B4002267
:10300000002100230024614D2D6815F00C052A00D5
:10301000002A04D0042A05D0082A06D021E06249FB
:10302000016020E0614901601DE05849096811F420
:103030007011564A126812F48033890C891C002BD7
:1030400003D15B4A514301600AE0504A126892037F
:1030500003D5554A5143016002E0544A514301608F
:1030600001E0514901604949096811F0F002120973
:103070005049545C0168E14041604449096811F4D9
:10308000E062120A4B49545C4168E14081603F496B
:10309000096811F46052D20A4649545C4168E14023
:1030A000C1603A49096811F44042920B4249545CAC
:1030B000C168B1FBF4F1016130BC7047C9B20029AD
:1030C00005D03E49096808433C49086005E03B4992
:1030D000096831EA0000394908607047C9B200291F
:1030E00005D03749096808433549086005E0344987
:1030F000096831EA0000324908607047C9B2002906
:1031000005D03049096808432E49086005E02D497B
:10311000096831EA00002B4908607047C9B20029EC
:1031200005D02949096808432749086005E0264970
:10313000096831EA0000244908607047C0B2234999
:103140000860704710B4002200230021C0B2440977
:10315000E4B22200012A02D10B490B6806E0022AE0
:1031600002D10F490B6801E019490B68C0B210F099
:103170001F0233FA02F0C00701D5012100E000214F
:103180000800C0B210BC704700100240041002409A
:103190000000FFF8FFFFF6FE081002406000424208
:1031A000201002403C04424200127A000024F40045
:1031B00000093D00FC0000201C0100201810024006
:1031C0001C1002400C100240101002404004424209
:1031D0002410024010B4002203881A0012F4415255
:1031E0000B884C8823438C882343CC8823430C8949
:1031F00023434C8923438C892343CC8923431A439B
:103200000280828B4FF2FF731A408283098A018207
:1032100010BC7047C9B2002904D0018851F04001A8
:10322000018004E001884FF6BF72114001807047B1
:1032300010B400230024C9B20909C9B20B0001214E
:1032400099400C00D2B2002A03D0818821438180AA
:1032500002E08188A143818010BC70478181704762
:103260008089704789B24FF6FF62914204D001888D
:1032700051F48071018004E001884FF6FF62114033
:103280000180704702884FF2FF731A400280028863
:10329000114301807047C9B2002904D0018851F45C
:1032A0000051018004E001884DF6FF721140018059
:1032B000704700220089084201D0012200E000226C
:1032C0001000C0B27047F0B40A00002100240025AD
:1032D0000023012612F00F07BE403400D2B21209BB
:1032E000D2B21500012212FA05F582882A40130095
:1032F0000089204204D09BB2002B01D0012100E0C4
:1033000000210800C0B2F0BC70470000012110F09D
:103310001F029140DFF8E82640B2400942F8201031
:103320007047012110F01F029140DFF8D82640B20B
:10333000400942F82010704780B5FFF79FFD5FF409
:103340008030FFF7CBFD3120FFF7FCFE0028FAD0DC
:103350000020FFF70BFE0020FFF71CFE4FF48060FB
:10336000FFF70EFE4FF48040FFF71FFE5FF4E01101
:103370005FF44030FFF7DCFD0120FFF7E4FD39206A
:10338000FFF7E0FE0028FAD00220FFF7E0FDFFF78C
:10339000E8FD0828FBD101BD00B585B001215FF42F
:1033A0000020FFF79BFE01211020FFF787FE4FF45E
:1033B0000060ADF8000003208DF8020004208DF8B5
:1033C000030000A9DFF84006FFF7D4F94FF480604E
:1033D000ADF8000003208DF8020018208DF80300DE
:1033E00000A9DFF82406FFF7C5F95FF4E13001908A
:1033F0000020ADF808000020ADF80A000020ADF86C
:103400000C000020ADF810000C20ADF80E0001A952
:10341000DFF8F80500F010FB0121DFF8F00500F0FF
:103420006DFB05B000BD00B587B001210420FFF79A
:1034300045FE01210820FFF741FEA020ADF8000065
:1034400003208DF8020018208DF8030000A9DFF892
:10345000C005FFF78FF94020ADF8000003208DF87C
:10346000020004208DF8030000A9DFF8A405FFF78F
:1034700081F91020ADF8000003208DF80200102023
:103480008DF8030000A9DFF88805FFF773F9102114
:10349000DFF87C05FFF7E0F90220ADF8000003201B
:1034A0008DF8020010208DF8030000A9DFF86405F4
:1034B000FFF760F90221DFF85C05FFF7CAF9012187
:1034C0004FF48050FFF7FAFD0020ADF804004FF4F0
:1034D0008270ADF806004FF40060ADF808000020DF
:1034E000ADF80A000120ADF80C004FF40070ADF803
:1034F0000E000020ADF810000020ADF8120001A968
:10350000DFF81405FFF766FE0121DFF80C05FFF771
:1035100081FE4FF48071DFF80005FFF7A3FE002164
:10352000DFF8F404FFF7B7FE07B000BD00B587B0C1
:1035300001211020FFF7C2FD01210820FFF7BEFD89
:103540004FF42040ADF8000003208DF80200182051
:103550008DF8030000A9DFF8BC04FFF70BF94FF466
:103560008040ADF8000003208DF8020004208DF8A3
:10357000030000A9DFF89C04FFF7FCF84FF4E070AB
:10358000ADF8000003208DF8020010208DF8030034
:1035900000A9DFF87404FFF7EDF84FF4E071DFF8ED
:1035A0006804FFF756F901214FF48040FFF796FDBC
:1035B0000020ADF804004FF48270ADF806004FF41F
:1035C0000060ADF808000020ADF80A000120ADF859
:1035D0000C004FF40070ADF80E000020ADF81000A4
:1035E0000020ADF8120001A9DFF83004FFF7F2FD6A
:1035F0000121DFF82804FFF70DFE4FF48071DFF89A
:103600001C04FFF72FFE0021DFF81004FFF743FE34
:1036100007B000BD00B587B001210120FFF74EFDC6
:1036200001210420FFF74AFD01210820FFF746FD94
:1036300001211020FFF742FD1020ADF8000003200B
:103640008DF8020018208DF8030000A9DFF8C403EC
:10365000FFF790F82820ADF8000003208DF8020055
:1036600004208DF8030000A9EA48FFF783F84FF41F
:103670000040ADF8000003208DF8020004208DF812
:10368000030000A9E248FFF775F80121E448FFF7BD
:10369000E6F80121E348FFF7E2F82020ADF800004A
:1036A00003208DF8020010208DF8030000A9D648F1
:1036B000FFF760F82021D448FFF7CEF801214FF43E
:1036C0000040FFF70BFD0020ADF804000020ADF82E
:1036D00006004FF40060ADF808000020ADF80A00C5
:1036E0000120ADF80C000020ADF80E000020ADF870
:1036F00010000020ADF8120001A9CB48FFF76AFDC9
:103700000121C948FFF786FD0021C748FFF7C3FD27
:1037100007B000BD00B589B001210420FFF7CEFC41
:103720000420ADF8000003208DF8020018208DF869
:10373000030000A9B648FFF71DF801215FF400203F
:10374000FFF7BCFC01A8FFF74DFBB8480068B8497B
:10375000B0FBF1F0401EADF8040040F2E730ADF8E8
:1037600008000020ADF8060001A9B248FFF7A3FA4F
:1037700004A8FFF743FB6020ADF810000120ADF86E
:10378000120040F2F310ADF816000020ADF818005A
:1037900004A9A848FFF7D9FA0121A648FFF73FFB83
:1037A00009B000BD80B501215FF0C050FFF796FC65
:1037B000012000F033FA002000F034FA00F03AFA69
:1037C0000120FFF7FCFB4120FFF7BCFC0028FAD0EA
:1037D0004FF48070FFF708FC0120FFF70BFC00F0AE
:1037E0006FFA48F2030000F058FA00F064FA002083
:1037F00000F047FA00F05FFA01BD00B585B04FF464
:10380000407000F091FA03208DF800000B208DF835
:10381000010000208DF8020001208DF8030000A8AF
:1038200000F087FA0121012000F00CFA00F043FAC1
:103830000320FFF76BFD01210820FFF73FFC01216A
:103840000120FFF73BFC0120ADF8040003208DF8B8
:10385000060004208DF8070001A96E48FEF78AFFD4
:1038600000210120FFF73AF80120029000208DF896
:103870000C000C208DF80D0001208DF80E0002A820
:1038800000F092FA06208DF800000C208DF801005F
:1038900000208DF8020001208DF8030000A800F040
:1038A00048FA0620FFF73DFD34208DF800000D207A
:1038B0008DF8010000208DF8020001208DF8030032
:1038C00000A800F036FA012271215748FFF7B0FC3A
:1038D000012260215448FFF7ABFC3320FFF716FDAF
:1038E00034208DF800000E208DF8010000208DF8A6
:1038F000020001208DF8030000A800F01AFA01224E
:1039000040F22551414800F007F93420FFF7FEFC52
:1039100005B000BD80B501211020FFF7CFFB0121CC
:103920000420FFF7CBFB1820ADF8000003208DF832
:10393000020010208DF8030000A93348FEF71AFF9B
:103940000220ADF8000003208DF8020010208DF851
:10395000030000A92E48FEF70DFF18212A48FEF7A4
:1039600078FF02212A48FEF774FF01BD80B50121CE
:103970001020FFF7A3FB0720ADF8000003208DF80F
:10398000020010208DF8030000A91F48FEF7F2FE88
:1039900001211020FFF792FB01210420FFF78EFB8D
:1039A0004FF4F850ADF8000003208DF8020010200D
:1039B0008DF8030000A91648FEF7DCFE4FF40070F6
:1039C000ADF8000003208DF8020010208DF80300F0
:1039D00000A90D48FEF7CEFE01210820FFF76EFB7F
:1039E0004FF48850ADF8000003208DF80200042049
:1039F0008DF8030000A90748FEF7BCFE01BD0000DA
:103A000000E100E080E100E000100140004C0040D7
:103A100000080140000C0140003001400038004027
:103A20000011200000023000003C00402001002076
:103A300040420F00004C0140F0B585B004000D007D
:103A400000200021002200230026AF89002F26003D
:103A5000208A4CF6FF710840E98808432082A0893B
:103A60004EF6F3110840A9882A8911436A89114347
:103A70000843A081A08A4FF6FF410840A989084366
:103A8000A08200A8FFF7BAFA1B48864201D1039929
:103A900000E00299A089000407D5192000FB01F07D
:103AA00029684900B0FBF1F206E0192000FB01F0A3
:103AB00029688900B0FBF1F26420B2FBF0F000014C
:103AC0000109642303FB1123A189090408D5D90046
:103AD00032316422B1FBF2F111F00701084307E033
:103AE000190132316422B1FBF2F111F00F010843E8
:103AF000208105B0F0BD000000380140C9B20029A6
:103B000004D0818951F40051818104E081894DF60E
:103B1000FF72114081817047F0B40023002400251A
:103B2000002689B240F66A17B94206000800C0B202
:103B30004309DBB289B211F01F04012010FA04F529
:103B4000012B01D10C3604E0022B01D1103600E02C
:103B50001436D2B2002A03D030682843306002E025
:103B60003068A8433060F0BC7047C905C90D81803A
:103B700070478088C005C00D7047002289B2B1F53A
:103B8000007F0088084201D0012200E000221000DE
:103B9000C0B2704770B4002300240025002289B20F
:103BA00040F66A16B1420A00D2B25509EDB289B2A6
:103BB00011F01F04012212FA04F4012D02D18289AE
:103BC000144006E0022D02D1028A144001E0828AEC
:103BD000144089B20B0A9BB2012111FA03F3008849
:103BE0000340002C03D0002B01D0012200E0002272
:103BF0001000C0B270BC704710B40022002389B21C
:103C000040F66A14A14289B20A0A012111FA02F3AC
:103C10009BB2D943018010BC70470000C0B2034979
:103C200008607047C0B202490860704720000E4229
:103C3000A0000E4280B50120FFF780FA0020FFF7B8
:103C40007DFA01BDC9B2002905D031490988084370
:103C50002F49088005E02E49098831EA00002C49E7
:103C6000088070472B48008850F0100029490880D0
:103C70007047284800884FF6EF71084025490880B2
:103C8000704710B50400FFF7EDFF200C23490880B2
:103C900021480480FFF7EDFF10BD10B50400FFF7C9
:103CA000E1FF200C10F00F001D4908801D48048022
:103CB000FFF7DFFF10BD174800888006FBD570476F
:103CC000144800884FF6F7710840124908801148DF
:103CD00000880007FBD5704700210E4A1288024079
:103CE00011000B4A128892B2024204D0C9B20029D4
:103CF00001D0012100E000210800C0B27047054951
:103D0000098831EA0000034908807047000000007C
:103D100000280040042800401C28004018280040CB
:103D2000082800400C2800401A4908431A49086036
:103D3000704710B4002100220F23C478002C1DD03E
:103D40001549096811F4E061D1F5E061090AD1F182
:103D50000402CB404178914082781A401143090116
:103D60000E4A037899540121027812F01F02914003
:103D70000B4A0078401142F8201009E00121027836
:103D800012F01F029140074A0078401142F82010BB
:103D900010BC70470000FA050CED00E000E400E004
:103DA00000E100E080E100E000212C4A110082796E
:103DB000002A35D0294A126803689A43274B1A60B3
:103DC000274A126803689A43254B1A6002795118F2
:103DD0000A6803681A430A60224909680268914325
:103DE000204A116020490968026891431E4A116007
:103DF000417910290CD11B49096802681143194AFD
:103E000011601949096800680843174908600EE005
:103E10001249427951180A6800681043086006E0A8
:103E2000027951180A68006832EA00000860704799
:103E300000210022094B1B6803401A000B4B1B6832
:103E4000034203D0002A01D0012100E00021080034
:103E5000C0B2704705490860704700000004014087
:103E600004040140080401400C0401401404014012
:103E7000012110F01F029140DFF83C2440B24009BC
:103E800042F820107047012110F01F029140DFF826
:103E90002C2440B2400942F82010704738B5040085
:103EA0000D0040212000FFF768FE0028F9D0EDB298
:103EB000290089B22000FFF758FE31BD38B5040053
:103EC0000D000D212000FFF7E9FF0A212000FFF778
:103ED000E5FF04E029782000FFF7E0FF6D1C28785B
:103EE0000028F7D131BD00002DE9F04FBBB0040030
:103EF0000D003420FFF7C7FF25A8DFF8C4135822B0
:103F0000FDF7B2FA27005FF000085FF0000A5FF0EB
:103F1000FF365FF0000B0AE004AADFF8A8130CA834
:103F200000F0FCF90CA9DFF8A003FFF7C7FFA07FA2
:103F30005FFA88F880452AD35FFA8BFBBBF1010F4B
:103F400015D1287803902879029068790190E87853
:103F50000090AB786A78DFF874130CA800F0DEF9F3
:103F60000CA9DFF86403FFF7A9FF5FF0000B002046
:103F7000A0773420FFF77CFFBDA1DFF84C03FFF7EB
:103F80009DFF3BB0BDE8F08F7F1C18F10108387829
:103F9000202804D1A07F5FFA89F98145F4D35FF02E
:103FA00000090AE0387804A95FFA89F909F80100E4
:103FB00019F101097F1C18F101083878202804D074
:103FC000A07F5FFA89F98145ECD3002004A95FFA4C
:103FD00089F909F8010002E07F1C18F1010838781E
:103FE000202804D1A07F5FFA89F98145F4D35FF0DE
:103FF000000901E019F101095FFA89F9B9F10B0F24
:104000000AD025A85FFA89F910EBC90104A800F0CD
:104010009FF90028EED14E4676B216F1010F3FF41B
:104020007BAF76B2002E15D0022E13D012D3042E01
:1040300010D00FD3062E00F0E380C0F0DE80082EF3
:1040400000F01C81C0F0DD800A2E00F02381C0F05A
:104050001B8127E15FF000090AE0387804A95FFAC4
:1040600089F909F8010019F101097F1C18F101080B
:104070003878202804D0A07F5FFA89F98145ECD3F5
:104080005FFA89F9B9F1000F01D15FF0010A002050
:1040900004A95FFA89F909F801005FF0000901E05D
:1040A00019F1010904A85FFA89F919F8000000283C
:1040B00009D004A85FFA89F919F8000030380A28F5
:1040C000EED35FF0010A04A800F063F9834676B2EC
:1040D000002E19D15FFA8AFABAF1010F05D05846BD
:1040E000C0B2FDF7B9FF01280BD104AA78490CA88A
:1040F00000F014F90CA97448FFF7E0FE5FF0000A25
:1041000078E085F801B075E076B2012E19D15FFA3A
:104110008AFABAF1010F05D05846C0B2FEF757F837
:1041200001280BD104AA6B490CA800F0F7F80CA9E0
:104130006548FFF7C3FE5FF0000A5BE085F802B058
:1041400058E076B2022E1BD15FFA8AFABAF1010F5B
:1041500005D05846C0B2FEF7E0F801280BD104AAFA
:104160005D490CA800F0DAF80CA95748FFF7A6FE45
:104170005FF0000A3EE085F803B05FF0010B39E024
:1041800076B2032E19D15FFA8AFABAF1010F05D07F
:104190005846C0B2FDF720FF01280BD104AA4F49B1
:1041A0000CA800F0BBF80CA94748FFF787FE5FF0AA
:1041B000000A1FE085F804B01CE076B2042E19D185
:1041C0005FFA8AFABAF1010F06D029005846C0B248
:1041D000FEF743FA01280BD104AA41490CA800F0CC
:1041E0009DF80CA93848FFF769FE5FF0000A01E06E
:1041F00085F805B05FF0010B5AE05FF0010B57E066
:10420000FEE738493048FFF759FE37492E48FFF797
:1042100055FE36492C48FFF751FE35492A48FFF72D
:104220004DFE34492848FFF749FE33492648FFF739
:1042300045FE32492448FFF741FE31492248FFF745
:104240003DFE30492048FFF739FE2F491E48FFF751
:1042500035FE2E491C48FFF731FE2D491A48FFF75D
:104260002DFE21491848FFF729FE2A4902E000BF28
:104270003E0000001448FFF721FE19E02800FEF779
:1042800032FA5FF0010B13E00120A8720620FFF75D
:10429000EFFD0DE00020A8720620FFF7F4FD5FF0AF
:1042A000010B05E05FF0FF361B490748FFF706FEEC
:1042B0005FF0FF363BE6000000E100E080E100E057
:1042C000BC4C0008A4540008004C0040E852000810
:1042D0006453000890530008BC530008345300088E
:1042E000E8530008144D0008684D0008BC4D000854
:1042F000104E0008644E0008B84E00080C4F00082D
:10430000604F0008B44F0008085000085C500008D7
:10431000B050000804510008F05400080CB41CB55B
:10432000044604A801900A46009401AB00A907487E
:1043300078441830FBF7FCFE009A00211170002829
:104340005CBF0098001B16BC5DF80CFB8BCFFFFF19
:10435000820707D010F8012B11F8013BBAB19A423D
:10436000F6D014E002680B689A42A2F1013301BF53
:10437000934313F0803F50F8042F51F8043FF3D0DB
:1043800010F8012B11F8013B0AB19A42F8D0D01A6B
:1043900070470A22002100F0A3B800002DE9F04F79
:1043A00085B004460D4690461E001CBF00203060BC
:1043B000A14601E009F1010999F8000000F0BAF8FE
:1043C0000028F7D199F800002D2816BF2B2819F8DE
:1043D000017B2B27B8F1000F55D4B8F1010F52D053
:1043E000B8F1250F4FDAB8F1010F0DDBB8F1100F5E
:1043F00004BF99F80000302802BF99F8010040F08E
:104400002000782814D10EE099F80000302818BF59
:104410004FF00A080CD199F8010040F020007828EC
:1044200004D14FF0100809F1020901E04FF008082B
:10443000CDF8109001E009F1010999F80000302849
:10444000F9D00FF2A00B4FF0000ACDF80C908DF8C8
:1044500008B00AE09DF80810CDF804A0401AC0B2D8
:10446000009008FB0A0A09F1010999F8000000F020
:104470006BF8014642465846FCF74EFF0028E9D14A
:104480000498484503D105B12C60002025E00FF2C7
:104490007C01039818F80110A9EB0000401A14D40D
:1044A000012808DA0098BAEB000004D30199B0FBA8
:1044B000F8F0884209D000F051F8222101600EB1D5
:1044C000012030604FF0FF3A03E02D2F08BFCAF102
:1044D000000A0DB1C5F80090504605B0BDE8F08F58
:1044E00000235BE730313233343536373839616297
:1044F000636465666768696A6B6C6D6E6F70717214
:10450000737475767778797A0000000000002115C1
:10451000110E0D0C0B0B0A0A0909090909080808F4
:104520000808080807070707070707070707070717
:104530000700000010B504460120FDF787FC204667
:10454000BDE8104000F010B810B504460120FDF79A
:104550007DFC2046BDE8104000F010B80148FDF792
:1045600039BD000024010020A0F10901052901D373
:10457000202801D10120704700207047A0F141019F
:104580001A2938BF203070477047FEE7FEE7FEE784
:10459000FEE770477047704780B500F045F901BDF0
:1045A00080B50120FFF798FB00281AD079480068F1
:1045B000C07A002808D108217748FEF74DF901207C
:1045C00074490968C87207E008217348FEF741F989
:1045D000002070490968C8720120FFF790FBFFF7BF
:1045E0006AFB01BD80B50120FFF722FC00281AD02C
:1045F00068480068407A00280ED168480068007852
:1046000050F0020065490968087062480068007A45
:1046100060490968487206E05E480068407A401EBA
:104620005C49096848720120FFF714FC01BD80B5A0
:1046300040F225515A48FFF7ADFA002854D040F215
:1046400025515748FFF7D8FA5548FFF792FA01006D
:1046500054480068534A1268927F1154C9B20D2918
:104660000FD14E480068007850F001004B490968AE
:10467000087020204B4909684A4A1268927F5054BA
:1046800025E0C9B27F2917D146480068807F0028FD
:104690001DD044480068807F401E424909688877E1
:1046A0002020404909683F4A1268927F50547F2178
:1046B0003B48FFF7F3FB0AE03A480068807F401C64
:1046C000384A12689077C9B23548FFF7E7FB35489A
:1046D0000068807F1E2807DB1D2032490968887723
:1046E0007F212F48FFF7DAFB01BD80B571212E48ED
:1046F000FEF7E9FD012810D128480068007850F045
:10470000040026490968087000212748FEF714F9BB
:1047100020212148FEF7A0F83AE060212248FEF768
:10472000D2FD012826D12048FEF734F91F49096837
:104730001E4A1268127921F812001C48006800799C
:10474000401C1A4909680871184800680079022855
:104750000BD10020154909680871104800680078DD
:1047600050F008000D490968087010210A48FEF74A
:1047700073F80DE050210C48FEF7A5FD012807D184
:1047800006480068007850F0100004490968087075
:1047900001BD00001801002000100140140100209C
:1047A000004C00400C010020003C004010010020A3
:1047B00040B2002808D50901214A40B210F00F008C
:1047C000801800F8041C03E009011E4A40B281541D
:1047D000704780B5411EB1F1807F01D301200EE00A
:1047E000401E194908600F215FF0FF30FFF7E0FF1E
:1047F000002016490860072015490860002002BD06
:1048000010B50400134800684FF47A71B0FBF1F062
:10481000FFF7DFFF104804600F4800680028FBD155
:1048200000200B49086010BD0B480068002804D028
:1048300009480068401E08490860704700000000F1
:1048400018ED00E000E400E014E000E018E000E013
:1048500010E000E0200100206401002010B59AB0B3
:10486000FEF76AFDFFF756F8FFF780F8FEF794FDB4
:10487000FEF7D9FDFEF75AFEFEF7CCFEFEF74AFF23
:10488000FEF790FFFEF7B9FFFDF755FF6549096890
:10489000087010216448FDF7DFFF9620FFF7B0FF96
:1048A00002216248FDF7D8FF9620FFF7A9FF0821F3
:1048B0005D48FDF7D1FF9620FFF7A2FF10215A486F
:1048C000FDF7C7FF9620FFF79BFF02215748FDF732
:1048D000C0FF9620FFF794FF08215348FDF7B9FF6A
:1048E0009620FFF78DFF10214F48FDF7B2FF022100
:1048F0004E48FDF7AEFF08214B48FDF7AAFF4C4993
:104900004C48FFF7DBFA4C494A48FFF7D7FA4548CD
:1049100000680278494900A8FFF700FD00A9454852
:10492000FFF7CCFA46494348FFF7C8FA45494148E2
:10493000FFF7C4FA3E493F48FFF7C0FA394800681C
:10494000FDF7D1FE012804D13F493A48FFF7B6FAF6
:1049500003E03E493748FFF7B1FA31A13548FFF788
:10496000ADFA00F07FF83A4800680078C0F3C00064
:10497000C0B200280DD036480068007810F0F7006B
:104980003349096808702748016832480068FEF713
:1049900024F82F480068007810F0010000280DD09E
:1049A0002B480068007810F0FE002949096808705B
:1049B0001C48016828480068FFF796FA24480068F8
:1049C0000078C0F34000C0B20028CAD01548006883
:1049D000807A0128C5D11E480068007810F0FD00DB
:1049E0001B490968087000211C48FDF7A5FF1B48FA
:1049F000FDF7D0FF040000211848FDF7ACFF174871
:104A0000FDF7C8FFC0B20300A4B22200144900A8F9
:104A1000FFF784FC00A90748FFF750FAA1E700BFA1
:104A20000A3E00001801002000100140000801406B
:104A300058510008004C0040A8510008F8510008E7
:104A4000485200089852000868540008885400082A
:104A500014010020100100200C0100200030014052
:104A6000185500084AF6AA2001490860704700005E
:104A70000030004080B54F48006850F001004D49BB
:104A800008604D4800684D4908404B490860494856
:104A900000684B490840474908604648006830F4C0
:104AA0008020444908604448006830F4FE004249D0
:104AB00008605FF41F004349086000F005F85FF0EC
:104AC00000604149086001BD80B500F001F801BDFA
:104AD00082B000200190002000903648006850F419
:104AE0008030344908603348006810F4003000908A
:104AF0000198401C01900098002803D10198B0F55E
:104B0000A06FF0D12B480068800302D501200090EF
:104B100001E0002000900098012847D12B48006850
:104B200050F010002949086028480068800880007B
:104B3000264908602548006850F0020023490860B3
:104B40001D4800681C4908601B4800681A49086035
:104B50001948006850F480601749086016480068DA
:104B600030F47C10144908601348006850F4E810D1
:104B7000114908600F48006850F080700D490860C6
:104B80000C4800688001FBD50B4800688008800055
:104B9000094908600848006850F0020006490860AA
:104BA0000548006810F00C000828F9D102B07047E1
:104BB0000000000000100240041002400000FFF856
:104BC000FFFFF6FE0810024008ED00E00020024062
:104BD000816807E002681168536889185B18C36030
:104BE00008320260C2689142F4D04A1C82600878A0
:104BF00070472DE9FF4D00F1080100910027026880
:104C0000520801EBC2010191B846002102910391C3
:104C10000168490800EBC101406800F0010501F19D
:104C20000804400804EBC00631E000A8FFF7D0FFFD
:104C30004FFA80FA0AE0009801680818009902907B
:104C4000496808180390009808300090029803996A
:104C50008842F0D0401C029010F801BD47450CD1AD
:104C6000B44208BF00F01DF8276805B14F446068E2
:104C700000EB070808344745F2D007F801BBBAF14A
:104C8000000F0AD51AF1010AE8D14745CDD1B44247
:104C9000CBD1304604B0BDE8F08DBAF1010AD5D5CC
:104CA000F3E7012000F000B880B5C046C046024AD4
:104CB00011001820ABBEFBE7260002006166310040
:104CC0000000000061663200000000006663757439
:104CD000000000007377696E7075740066640000F0
:104CE0000000000063666700000000007265626FEC
:104CF0006F74000068656C70000000006465666198
:104D0000756C7400737461727400000073746F705A
:104D100000000000202A2A2A2A2A2A2A2A2A2A2AA5
:104D20002A2A2A2A2A2A2A2A2A2A2A2A2A2A2A2AE3
:104D30002A2A2A2A2A2A2A2A48656C70206D656E3A
:104D4000752A2A2A2A2A2A2A2A2A2A2A2A2A2A2A78
:104D50002A2A2A2A2A2A2A2A2A2A2A2A2A2A2A2AB3
:104D60002A2A2A2A00000000202A20202020202091
:104D70002020202020202020202020202020202033
:104D80002020202020202020202020202020202023
:104D90002020202020202020202020202020202013
:104DA0002020202020202020202020202020202003
:104DB000202020202020202A00000000202A20611E
:104DC0006631203C76616C75653E202020202020D5
:104DD0002D20416D70696C6669636174696F6E2026
:104DE000666163746F72204B312028444136292C50
:104DF000203C76616C75653E202D20302E2E3820AB
:104E000020202020202020202020202A0000000018
:104E1000202A20616632203C76616C75653E202038
:104E2000202020202D20416D70696C6669636174BB
:104E3000696F6E20666163746F72204B3220284464
:104E40004132292C203C76616C75653E202D203046
:104E50002E2E313220202020202020202020202A09
:104E600000000000202A2066637574203C76616C87
:104E700075653E20202020202D204375746F6666C6
:104E8000206672657175656E6379206F662074683F
:104E900065206C6F7720706173732066696C746530
:104EA000722C203C76616C75653E202D20302E2EB4
:104EB0003139202A00000000202A207377696E70A3
:104EC0007574203C76616C75653E20202D205377EB
:104ED00069746368696E6720696E707574206D6FA0
:104EE0006465202844413132292C203C76616C7560
:104EF000653E202D20302E2E342020202020202002
:104F0000202020202020202A00000000202A2066C7
:104F100064203C76616C75653E2020202020202096
:104F20002D2053616D706C696E67206672657175B6
:104F3000656E63792C203C76616C75653E202D2072
:104F4000302E2E362020202020202020202020201F
:104F500020202020202020202020202A00000000C7
:104F6000202A206366672020202020202020202067
:104F7000202020202D20496E717569727920636F81
:104F80006E66696775726174696F6E20616E642008
:104F90006E756D626572206F66206368616E6E6506
:104FA0006C20202020202020202020202020202AAB
:104FB00000000000202A2064656661756C74202062
:104FC00020202020202020202D2044656661756C43
:104FD0007420636F6E66696775726174696F6E20A5
:104FE00020202020202020202020202020202020C1
:104FF00020202020202020202020202020202020B1
:105000002020202A00000000202A207265626F6F95
:105010007420202020202020202020202D205265B8
:10502000626F6F74206368616E6E656C2020202053
:105030002020202020202020202020202020202070
:105040002020202020202020202020202020202060
:10505000202020202020202A00000000202A207369
:105060007461727420202020202020202020202005
:105070002D20537461727420726561642041444331
:105080002064617461202020202020202020202006
:105090002020202020202020202020202020202010
:1050A00020202020202020202020202A0000000076
:1050B000202A2073746F70202020202020202020A0
:1050C000202020202D2053746F7020726561642091
:1050D000414443206461746120202020202020204E
:1050E00020202020202020202020202020202020C0
:1050F0002020202020202020202020202020202AA6
:1051000000000000202A2A2A2A2A2A2A2A2A2A2AB1
:105110002A2A2A2A2A2A2A2A2A2A2A2A2A2A2A2AEF
:105120002A2A2A2A2A2A2A2A2A2A2A2A2A2A2A2ADF
:105130002A2A2A2A2A2A2A2A2A2A2A2A2A2A2A2ACF
:105140002A2A2A2A2A2A2A2A2A2A2A2A2A2A2A2ABF
:105150002A2A2A2A000000002A2A2A2A2A2A2A2A57
:105160002A2A2A2A2A2A2A2A2A2A2A2A2A2A2A2A9F
:105170002A2A2A2A2A2A2A2A2A2A2A2A2A2A2A2A8F
:105180002A2A2A2A2A2A2A2A2A2A2A2A2A2A2A2A7F
:105190002A2A2A2A2A2A2A2A2A2A2A2A2A2A2A2A6F
:1051A0002A2A2A2A2A0000002A2020202020202023
:1051B00020202020202020202020202020202020EF
:1051C000204B5449565420736569736D696320738D
:1051D000746174696F6E2020202020202020202000
:1051E00020202020202020202020202020202020BF
:1051F000202020202A0000002A20202020202020FB
:10520000202020202020202020202020202020209E
:10521000204E756D626572206F66204368616E6E08
:10522000656C3A202564202020202020202020208A
:10523000202020202020202020202020202020206E
:1052400020202020202A00002A202020202020208A
:10525000202020202020202020202020202020204E
:105260002056657273696F6E3A20302E3056204298
:105270006574612020202020202020202020202054
:10528000202020202020202020202020202020201E
:10529000202020202A0000002A202020202020205A
:1052A00020202020202020202020202020202020FE
:1052B000202020202030312E30392E323031342041
:1052C00020202020202020202020202020202020DE
:1052D00020202020202020202020202020202020CE
:1052E000202020202A0000000A0D206166312025A0
:1052F0006420206166322025642020666375742056
:1053000025642020666420256420207377696E70F0
:105310007574202564200A0D204E756D626572201B
:105320006F66206368616E6E656C3A202564200AA2
:105330000D00000020466F7220636F6D6D616E641A
:1053400020227377696E7075742220617267756DA3
:10535000656E7420222573222069732077726F6E28
:105360006721000020466F7220636F6D6D616E646F
:1053700020226166312220617267756D656E74202E
:10538000222573222069732077726F6E67210000D7
:1053900020466F7220636F6D6D616E6420226166BE
:1053A000322220617267756D656E7420222573222A
:1053B0002069732077726F6E6721000020466F723C
:1053C00020636F6D6D616E642022666375742220A8
:1053D000617267756D656E74202225732220697372
:1053E0002077726F6E67210020466F7220636F6DA9
:1053F0006D616E64202266642220617267756D653E
:105400006E7420222573222069732077726F6E6775
:105410002100000010B5074979441831064C7C443E
:10542000163404E00A68081D511888470146A14255
:10543000F8D110BD080000003000000063BEFFFF7F
:10544000480000002801002000000000A7F7FFFF2F
:105450000200000002000000EC0100003300000028
:10546000000000202801000020496E697469616C09
:10547000697A6174696F6E206E6F7420706F7373D8
:1054800069626C650000000020496E697469616C96
:10549000697A6174696F6E20636F6D706C65746595
:1054A0006400000020436F6D6D616E6420222573DF
:1054B00022206E6F7420666F756E642100000000FC
:1054C00000F00BF8002801D0FFF7A4FF0020C04631
:1054D000C046FFF7C3F900F002F80120704700F062
:1054E00001B8000007463846FFF7DEFBFBE7000087
:1054F000436F6D6D616E64206E6F74207265636FB3
:10550000676E697A65642100014880470148004759
:10551000754A0008255500084144433A202558257E
:1055200058000000C046C046C046C046FFF7C8FF4E
:10553000FFF72AB8FFF729B8FFF728B8FFF727B811
:10554000FFF726B8FFF725B8FFF724B8FFF723B811
:10555000FFF722B8FFF7FEBFFFF7FEBFFFF7FEBF62
:10556000FFF71EB8FFF7FEBFFFF7FEBFFFF73AB821
:10557000FFF7FEBFFFF7FEBFFFF7FEBFFFF7FEBF5F
:10558000FFF7FEBFFFF7FEBFFFF7FEBFFFF7FEBF4F
:10559000FFF7FEBFFFF7FEBFFFF7FEBFFFF7FEBF3F
:1055A000FFF7FEBFFFF7FEBFFFF7FEBFFFF7FEBF2F
:1055B000FFF7FEBFFFF7FEBFFFF7FEBFFFF7FEBF1F
:1055C000FFF7FEBFFFF7FEBFFFF7FEBFFFF7FEBF0F
:1055D000FFF7FEBFFFF7FEBFFFF7FEBFFFF7FEBFFF
:1055E000FFF7FEBFFFF7FEBFFFF7FEBFFFF7FEBFEF
:1055F000FFF7FEBFFFF7FEBFFFF7FEBFFFF7FEBFDF
:10560000FFF7FEBFFFF7FEBFFFF7FEBFFFF7FEBFCE
:10561000FFF7FEBFFFF7FEBFFFF7FEBFFFF7FEBFBE
:10562000FFF763B8FFF703B8FFF7FEBFFFF7FEBF52
:10563000FFF7FEBFFFF7FEBFFFF7FEBFFFF7FEBF9E
:10564000FFF7FEBFE400F8FFDC00FAFF8100CD00A9
:1056500023010203040102030406070809280100CC
:1056600020540100206801002048010020020406A7
:075670000800A24A04FC003F
:040000050800552575
:00000001FF
